{"contracts/SecrETH.sol":{"SecrETH":{"abi":[{"anonymous":false,"inputs":[{"indexed":false,"internalType":"bytes32","name":"cipher","type":"bytes32"},{"indexed":false,"internalType":"bool","name":"shouldStoreDecryption","type":"bool"}],"name":"DecryptionCalled","type":"event"},{"anonymous":false,"inputs":[{"indexed":false,"internalType":"bytes32","name":"cipher","type":"bytes32"}],"name":"DecryptionReady","type":"event"},{"anonymous":false,"inputs":[{"indexed":false,"internalType":"bytes32","name":"cipher","type":"bytes32"},{"indexed":false,"internalType":"uint256","name":"storageFee","type":"uint256"}],"name":"DecryptionReadyIncentivized","type":"event"},{"anonymous":false,"inputs":[{"indexed":false,"internalType":"bytes32","name":"newSignerPubKey","type":"bytes32"}],"name":"JoinNetworkRequest","type":"event"},{"inputs":[{"internalType":"bytes32","name":"","type":"bytes32"}],"name":"allCiphers","outputs":[{"internalType":"address","name":"cipherOwner","type":"address"},{"internalType":"uint256","name":"decryptionInitBlock","type":"uint256"},{"internalType":"bool","name":"storeDecryption","type":"bool"},{"internalType":"string","name":"decryptedCipher","type":"string"},{"internalType":"uint256","name":"decryptionStorageFee","type":"uint256"}],"stateMutability":"view","type":"function"},{"inputs":[],"name":"blocksDelay","outputs":[{"internalType":"uint32","name":"","type":"uint32"}],"stateMutability":"view","type":"function"},{"inputs":[{"internalType":"bytes32","name":"cipher","type":"bytes32"},{"internalType":"bool","name":"shouldStoreDecryption","type":"bool"}],"name":"decrypt","outputs":[],"stateMutability":"payable","type":"function"},{"inputs":[],"name":"getPubKey","outputs":[{"internalType":"bytes32","name":"","type":"bytes32"}],"stateMutability":"view","type":"function"},{"inputs":[{"internalType":"address","name":"","type":"address"}],"name":"isSigner","outputs":[{"internalType":"bool","name":"","type":"bool"}],"stateMutability":"view","type":"function"},{"inputs":[{"internalType":"bytes32","name":"newSignerPubKey","type":"bytes32"}],"name":"joinNetwork","outputs":[],"stateMutability":"nonpayable","type":"function"},{"inputs":[],"name":"numSigners","outputs":[{"internalType":"uint32","name":"","type":"uint32"}],"stateMutability":"view","type":"function"},{"inputs":[{"internalType":"bytes32","name":"cipher","type":"bytes32"}],"name":"register","outputs":[],"stateMutability":"payable","type":"function"},{"inputs":[{"internalType":"bytes32","name":"","type":"bytes32"},{"internalType":"uint256","name":"","type":"uint256"}],"name":"shareGenerationFractions","outputs":[{"internalType":"bytes32","name":"","type":"bytes32"}],"stateMutability":"view","type":"function"},{"inputs":[{"internalType":"bytes32","name":"cipher","type":"bytes32"},{"internalType":"string","name":"decryptedCipher","type":"string"}],"name":"submitDecryption","outputs":[],"stateMutability":"nonpayable","type":"function"},{"inputs":[{"internalType":"bytes32","name":"cipher","type":"bytes32"},{"internalType":"bytes32","name":"fractionalDecryption","type":"bytes32"}],"name":"submitFractionalDecryption","outputs":[],"stateMutability":"nonpayable","type":"function"},{"inputs":[{"internalType":"bytes32","name":"newSignerPubKey","type":"bytes32"},{"internalType":"bytes32","name":"share","type":"bytes32"}],"name":"submitShare","outputs":[],"stateMutability":"nonpayable","type":"function"},{"inputs":[],"name":"threshold","outputs":[{"internalType":"uint32","name":"","type":"uint32"}],"stateMutability":"view","type":"function"}],"evm":{"bytecode":{"linkReferences":{},"object":"60806040526043600160006101000a81548163ffffffff021916908363ffffffff1602179055506064600160046101000a81548163ffffffff021916908363ffffffff1602179055506064600160086101000a81548163ffffffff021916908363ffffffff1602179055506127106001600c6101000a81548163ffffffff021916908363ffffffff16021790555034801561009957600080fd5b506118ed806100a96000396000f3fe6080604052600436106100c25760003560e01c80637df73e271161007f57806391dfeae51161005957806391dfeae514610280578063c599a942146102a9578063dfb832ba146102d2578063e1fa8e84146102ee576100c2565b80637df73e27146101ef5780638063fae01461022c5780638a68978414610255576100c2565b806312679fed146100c757806327efe457146100f257806342cde4e81461011b5780634ad02ef1146101465780634df5e0e6146101715780636ed1627f146101ae575b600080fd5b3480156100d357600080fd5b506100dc61030a565b6040516100e99190610cd9565b60405180910390f35b3480156100fe57600080fd5b5061011960048036038101906101149190610d99565b610320565b005b34801561012757600080fd5b50610130610441565b60405161013d9190610cd9565b60405180910390f35b34801561015257600080fd5b5061015b610457565b6040516101689190610e08565b60405180910390f35b34801561017d57600080fd5b5061019860048036038101906101939190610e59565b610460565b6040516101a59190610e08565b60405180910390f35b3480156101ba57600080fd5b506101d560048036038101906101d09190610e99565b610491565b6040516101e6959493929190610fc1565b60405180910390f35b3480156101fb57600080fd5b5061021660048036038101906102119190611047565b61057c565b6040516102239190611074565b60405180910390f35b34801561023857600080fd5b50610253600480360381019061024e919061108f565b61059c565b005b34801561026157600080fd5b5061026a6105da565b6040516102779190610cd9565b60405180910390f35b34801561028c57600080fd5b506102a760048036038101906102a2919061108f565b6105f0565b005b3480156102b557600080fd5b506102d060048036038101906102cb9190610e99565b610a11565b005b6102ec60048036038101906102e791906110fb565b610a4b565b005b61030860048036038101906103039190610e99565b610b98565b005b600160049054906101000a900463ffffffff1681565b600073ffffffffffffffffffffffffffffffffffffffff166004600085815260200190815260200160002060000160009054906101000a900473ffffffffffffffffffffffffffffffffffffffff1673ffffffffffffffffffffffffffffffffffffffff160361038f57600080fd5b81816004600086815260200190815260200160002060050191826103b4929190611381565b506004600084815260200190815260200160002060040160009054906101000a900460ff161561043c573373ffffffffffffffffffffffffffffffffffffffff166108fc60046000868152602001908152602001600020600601549081150290604051600060405180830381858888f1935050505015801561043a573d6000803e3d6000fd5b505b505050565b600160009054906101000a900463ffffffff1681565b60008054905090565b6003602052816000526040600020818154811061047c57600080fd5b90600052602060002001600091509150505481565b60046020528060005260406000206000915090508060000160009054906101000a900473ffffffffffffffffffffffffffffffffffffffff16908060010154908060040160009054906101000a900460ff16908060050180546104f3906111a4565b80601f016020809104026020016040519081016040528092919081815260200182805461051f906111a4565b801561056c5780601f106105415761010080835404028352916020019161056c565b820191906000526020600020905b81548152906001019060200180831161054f57829003601f168201915b5050505050908060060154905085565b60026020528060005260406000206000915054906101000a900460ff1681565b600360008381526020019081526020016000208190806001815401808255809150506001900390600052602060002001600090919091909150555050565b600160089054906101000a900463ffffffff1681565b600260003373ffffffffffffffffffffffffffffffffffffffff1673ffffffffffffffffffffffffffffffffffffffff16815260200190815260200160002060009054906101000a900460ff1661067c576040517f08c379a0000000000000000000000000000000000000000000000000000000008152600401610673906114c3565b60405180910390fd5b600160089054906101000a900463ffffffff1663ffffffff1660046000848152602001908152602001600020600101546106b69190611512565b4311156106f8576040517f08c379a00000000000000000000000000000000000000000000000000000000081526004016106ef906115b8565b60405180910390fd5b60005b60046000848152602001908152602001600020600201805490508110156107ef573373ffffffffffffffffffffffffffffffffffffffff1660046000858152602001908152602001600020600201828154811061075b5761075a6115d8565b5b9060005260206000200160009054906101000a900473ffffffffffffffffffffffffffffffffffffffff1673ffffffffffffffffffffffffffffffffffffffff16036107dc576040517f08c379a00000000000000000000000000000000000000000000000000000000081526004016107d390611679565b60405180910390fd5b80806107e790611699565b9150506106fb565b503373ffffffffffffffffffffffffffffffffffffffff166108fc600160049054906101000a900463ffffffff166001600c9054906101000a900463ffffffff1661083a9190611710565b63ffffffff169081150290604051600060405180830381858888f1935050505015801561086b573d6000803e3d6000fd5b506004600083815260200190815260200160002060030181908060018154018082558091505060019003906000526020600020016000909190919091505560046000838152602001908152602001600020600201339080600181540180825580915050600190039060005260206000200160009091909190916101000a81548173ffffffffffffffffffffffffffffffffffffffff021916908373ffffffffffffffffffffffffffffffffffffffff160217905550600160009054906101000a900463ffffffff1663ffffffff16600460008481526020019081526020016000206003018054905010610a0d576004600083815260200190815260200160002060040160009054906101000a900460ff166109bc577f3a98a0c4d082a0de73bf3517a925253ef2734009f3658faf1dea6fda3a077511826040516109af9190610e08565b60405180910390a1610a0c565b7f47809c742d6a78f90b32bea12241727704690a861a68ba6de574bd94e0300c59826004600085815260200190815260200160002060060154604051610a03929190611741565b60405180910390a15b5b5050565b7ff038f3ef493c9873db4722ea4d338910a38691891fc5c58be1ff60ea1c67091c81604051610a409190610e08565b60405180910390a150565b3373ffffffffffffffffffffffffffffffffffffffff166004600084815260200190815260200160002060000160009054906101000a900473ffffffffffffffffffffffffffffffffffffffff1673ffffffffffffffffffffffffffffffffffffffff1614610aef576040517f08c379a0000000000000000000000000000000000000000000000000000000008152600401610ae6906117dc565b60405180910390fd5b7f129771835890f568a463b5138a64c652da11fe24f9da1738c797b164070666278282604051610b209291906117fc565b60405180910390a14360046000848152602001908152602001600020600101819055508015610b945734600460008481526020019081526020016000206006018190555060016004600084815260200190815260200160002060040160006101000a81548160ff0219169083151502179055505b5050565b600073ffffffffffffffffffffffffffffffffffffffff166004600083815260200190815260200160002060000160009054906101000a900473ffffffffffffffffffffffffffffffffffffffff1673ffffffffffffffffffffffffffffffffffffffff1614610c3d576040517f08c379a0000000000000000000000000000000000000000000000000000000008152600401610c3490611897565b60405180910390fd5b6001600c9054906101000a900463ffffffff1663ffffffff16341015610c6257600080fd5b336004600083815260200190815260200160002060000160006101000a81548173ffffffffffffffffffffffffffffffffffffffff021916908373ffffffffffffffffffffffffffffffffffffffff16021790555050565b600063ffffffff82169050919050565b610cd381610cba565b82525050565b6000602082019050610cee6000830184610cca565b92915050565b600080fd5b600080fd5b6000819050919050565b610d1181610cfe565b8114610d1c57600080fd5b50565b600081359050610d2e81610d08565b92915050565b600080fd5b600080fd5b600080fd5b60008083601f840112610d5957610d58610d34565b5b8235905067ffffffffffffffff811115610d7657610d75610d39565b5b602083019150836001820283011115610d9257610d91610d3e565b5b9250929050565b600080600060408486031215610db257610db1610cf4565b5b6000610dc086828701610d1f565b935050602084013567ffffffffffffffff811115610de157610de0610cf9565b5b610ded86828701610d43565b92509250509250925092565b610e0281610cfe565b82525050565b6000602082019050610e1d6000830184610df9565b92915050565b6000819050919050565b610e3681610e23565b8114610e4157600080fd5b50565b600081359050610e5381610e2d565b92915050565b60008060408385031215610e7057610e6f610cf4565b5b6000610e7e85828601610d1f565b9250506020610e8f85828601610e44565b9150509250929050565b600060208284031215610eaf57610eae610cf4565b5b6000610ebd84828501610d1f565b91505092915050565b600073ffffffffffffffffffffffffffffffffffffffff82169050919050565b6000610ef182610ec6565b9050919050565b610f0181610ee6565b82525050565b610f1081610e23565b82525050565b60008115159050919050565b610f2b81610f16565b82525050565b600081519050919050565b600082825260208201905092915050565b60005b83811015610f6b578082015181840152602081019050610f50565b60008484015250505050565b6000601f19601f8301169050919050565b6000610f9382610f31565b610f9d8185610f3c565b9350610fad818560208601610f4d565b610fb681610f77565b840191505092915050565b600060a082019050610fd66000830188610ef8565b610fe36020830187610f07565b610ff06040830186610f22565b81810360608301526110028185610f88565b90506110116080830184610f07565b9695505050505050565b61102481610ee6565b811461102f57600080fd5b50565b6000813590506110418161101b565b92915050565b60006020828403121561105d5761105c610cf4565b5b600061106b84828501611032565b91505092915050565b60006020820190506110896000830184610f22565b92915050565b600080604083850312156110a6576110a5610cf4565b5b60006110b485828601610d1f565b92505060206110c585828601610d1f565b9150509250929050565b6110d881610f16565b81146110e357600080fd5b50565b6000813590506110f5816110cf565b92915050565b6000806040838503121561111257611111610cf4565b5b600061112085828601610d1f565b9250506020611131858286016110e6565b9150509250929050565b600082905092915050565b7f4e487b7100000000000000000000000000000000000000000000000000000000600052604160045260246000fd5b7f4e487b7100000000000000000000000000000000000000000000000000000000600052602260045260246000fd5b600060028204905060018216806111bc57607f821691505b6020821081036111cf576111ce611175565b5b50919050565b60008190508160005260206000209050919050565b60006020601f8301049050919050565b600082821b905092915050565b6000600883026112377fffffffffffffffffffffffffffffffffffffffffffffffffffffffffffffffff826111fa565b61124186836111fa565b95508019841693508086168417925050509392505050565b6000819050919050565b600061127e61127961127484610e23565b611259565b610e23565b9050919050565b6000819050919050565b61129883611263565b6112ac6112a482611285565b848454611207565b825550505050565b600090565b6112c16112b4565b6112cc81848461128f565b505050565b5b818110156112f0576112e56000826112b9565b6001810190506112d2565b5050565b601f82111561133557611306816111d5565b61130f846111ea565b8101602085101561131e578190505b61133261132a856111ea565b8301826112d1565b50505b505050565b600082821c905092915050565b60006113586000198460080261133a565b1980831691505092915050565b60006113718383611347565b9150826002028217905092915050565b61138b838361113b565b67ffffffffffffffff8111156113a4576113a3611146565b5b6113ae82546111a4565b6113b98282856112f4565b6000601f8311600181146113e857600084156113d6578287013590505b6113e08582611365565b865550611448565b601f1984166113f6866111d5565b60005b8281101561141e578489013582556001820191506020850194506020810190506113f9565b8683101561143b5784890135611437601f891682611347565b8355505b6001600288020188555050505b50505050505050565b7f546869732061646472657373206973206e6f742061207365637245544820736960008201527f676e65722e000000000000000000000000000000000000000000000000000000602082015250565b60006114ad602583610f3c565b91506114b882611451565b604082019050919050565b600060208201905081810360008301526114dc816114a0565b9050919050565b7f4e487b7100000000000000000000000000000000000000000000000000000000600052601160045260246000fd5b600061151d82610e23565b915061152883610e23565b92508282019050808211156115405761153f6114e3565b5b92915050565b7f5468652074696d6520746f207375626d69742061206672616374696f6e616c2060008201527f64656372797074696f6e20686173207061737365642e00000000000000000000602082015250565b60006115a2603683610f3c565b91506115ad82611546565b604082019050919050565b600060208201905081810360008301526115d181611595565b9050919050565b7f4e487b7100000000000000000000000000000000000000000000000000000000600052603260045260246000fd5b7f54686973206164647265737320616c6572656164792070726f7669646564207460008201527f68656972206672616374696f6e616c2064656372797074696f6e2e0000000000602082015250565b6000611663603b83610f3c565b915061166e82611607565b604082019050919050565b6000602082019050818103600083015261169281611656565b9050919050565b60006116a482610e23565b91507fffffffffffffffffffffffffffffffffffffffffffffffffffffffffffffffff82036116d6576116d56114e3565b5b600182019050919050565b7f4e487b7100000000000000000000000000000000000000000000000000000000600052601260045260246000fd5b600061171b82610cba565b915061172683610cba565b925082611736576117356116e1565b5b828204905092915050565b60006040820190506117566000830185610df9565b6117636020830184610f07565b9392505050565b7f546869732061646472657373206973206e6f7420616c6c6f77656420746f206460008201527f656372797074207468697320636970686572746578742e000000000000000000602082015250565b60006117c6603783610f3c565b91506117d18261176a565b604082019050919050565b600060208201905081810360008301526117f5816117b9565b9050919050565b60006040820190506118116000830185610df9565b61181e6020830184610f22565b9392505050565b7f54686973206369706865727465787420697320616c726561647920726567697360008201527f74657265642e20547279207573696e6720616e6f746865722073616c742e0000602082015250565b6000611881603e83610f3c565b915061188c82611825565b604082019050919050565b600060208201905081810360008301526118b081611874565b905091905056fea2646970667358221220fd2133f37a1c6c51a5381023e2b5ebc3e5dc078eab03b2afe258789797715b3764736f6c63430008110033","opcodes":"PUSH1 0x80 PUSH1 0x40 MSTORE PUSH1 0x43 PUSH1 0x1 PUSH1 0x0 PUSH2 0x100 EXP DUP2 SLOAD DUP2 PUSH4 0xFFFFFFFF MUL NOT AND SWAP1 DUP4 PUSH4 0xFFFFFFFF AND MUL OR SWAP1 SSTORE POP PUSH1 0x64 PUSH1 0x1 PUSH1 0x4 PUSH2 0x100 EXP DUP2 SLOAD DUP2 PUSH4 0xFFFFFFFF MUL NOT AND SWAP1 DUP4 PUSH4 0xFFFFFFFF AND MUL OR SWAP1 SSTORE POP PUSH1 0x64 PUSH1 0x1 PUSH1 0x8 PUSH2 0x100 EXP DUP2 SLOAD DUP2 PUSH4 0xFFFFFFFF MUL NOT AND SWAP1 DUP4 PUSH4 0xFFFFFFFF AND MUL OR SWAP1 SSTORE POP PUSH2 0x2710 PUSH1 0x1 PUSH1 0xC PUSH2 0x100 EXP DUP2 SLOAD DUP2 PUSH4 0xFFFFFFFF MUL NOT AND SWAP1 DUP4 PUSH4 0xFFFFFFFF AND MUL OR SWAP1 SSTORE POP CALLVALUE DUP1 ISZERO PUSH2 0x99 JUMPI PUSH1 0x0 DUP1 REVERT JUMPDEST POP PUSH2 0x18ED DUP1 PUSH2 0xA9 PUSH1 0x0 CODECOPY PUSH1 0x0 RETURN INVALID PUSH1 0x80 PUSH1 0x40 MSTORE PUSH1 0x4 CALLDATASIZE LT PUSH2 0xC2 JUMPI PUSH1 0x0 CALLDATALOAD PUSH1 0xE0 SHR DUP1 PUSH4 0x7DF73E27 GT PUSH2 0x7F JUMPI DUP1 PUSH4 0x91DFEAE5 GT PUSH2 0x59 JUMPI DUP1 PUSH4 0x91DFEAE5 EQ PUSH2 0x280 JUMPI DUP1 PUSH4 0xC599A942 EQ PUSH2 0x2A9 JUMPI DUP1 PUSH4 0xDFB832BA EQ PUSH2 0x2D2 JUMPI DUP1 PUSH4 0xE1FA8E84 EQ PUSH2 0x2EE JUMPI PUSH2 0xC2 JUMP JUMPDEST DUP1 PUSH4 0x7DF73E27 EQ PUSH2 0x1EF JUMPI DUP1 PUSH4 0x8063FAE0 EQ PUSH2 0x22C JUMPI DUP1 PUSH4 0x8A689784 EQ PUSH2 0x255 JUMPI PUSH2 0xC2 JUMP JUMPDEST DUP1 PUSH4 0x12679FED EQ PUSH2 0xC7 JUMPI DUP1 PUSH4 0x27EFE457 EQ PUSH2 0xF2 JUMPI DUP1 PUSH4 0x42CDE4E8 EQ PUSH2 0x11B JUMPI DUP1 PUSH4 0x4AD02EF1 EQ PUSH2 0x146 JUMPI DUP1 PUSH4 0x4DF5E0E6 EQ PUSH2 0x171 JUMPI DUP1 PUSH4 0x6ED1627F EQ PUSH2 0x1AE JUMPI JUMPDEST PUSH1 0x0 DUP1 REVERT JUMPDEST CALLVALUE DUP1 ISZERO PUSH2 0xD3 JUMPI PUSH1 0x0 DUP1 REVERT JUMPDEST POP PUSH2 0xDC PUSH2 0x30A JUMP JUMPDEST PUSH1 0x40 MLOAD PUSH2 0xE9 SWAP2 SWAP1 PUSH2 0xCD9 JUMP JUMPDEST PUSH1 0x40 MLOAD DUP1 SWAP2 SUB SWAP1 RETURN JUMPDEST CALLVALUE DUP1 ISZERO PUSH2 0xFE JUMPI PUSH1 0x0 DUP1 REVERT JUMPDEST POP PUSH2 0x119 PUSH1 0x4 DUP1 CALLDATASIZE SUB DUP2 ADD SWAP1 PUSH2 0x114 SWAP2 SWAP1 PUSH2 0xD99 JUMP JUMPDEST PUSH2 0x320 JUMP JUMPDEST STOP JUMPDEST CALLVALUE DUP1 ISZERO PUSH2 0x127 JUMPI PUSH1 0x0 DUP1 REVERT JUMPDEST POP PUSH2 0x130 PUSH2 0x441 JUMP JUMPDEST PUSH1 0x40 MLOAD PUSH2 0x13D SWAP2 SWAP1 PUSH2 0xCD9 JUMP JUMPDEST PUSH1 0x40 MLOAD DUP1 SWAP2 SUB SWAP1 RETURN JUMPDEST CALLVALUE DUP1 ISZERO PUSH2 0x152 JUMPI PUSH1 0x0 DUP1 REVERT JUMPDEST POP PUSH2 0x15B PUSH2 0x457 JUMP JUMPDEST PUSH1 0x40 MLOAD PUSH2 0x168 SWAP2 SWAP1 PUSH2 0xE08 JUMP JUMPDEST PUSH1 0x40 MLOAD DUP1 SWAP2 SUB SWAP1 RETURN JUMPDEST CALLVALUE DUP1 ISZERO PUSH2 0x17D JUMPI PUSH1 0x0 DUP1 REVERT JUMPDEST POP PUSH2 0x198 PUSH1 0x4 DUP1 CALLDATASIZE SUB DUP2 ADD SWAP1 PUSH2 0x193 SWAP2 SWAP1 PUSH2 0xE59 JUMP JUMPDEST PUSH2 0x460 JUMP JUMPDEST PUSH1 0x40 MLOAD PUSH2 0x1A5 SWAP2 SWAP1 PUSH2 0xE08 JUMP JUMPDEST PUSH1 0x40 MLOAD DUP1 SWAP2 SUB SWAP1 RETURN JUMPDEST CALLVALUE DUP1 ISZERO PUSH2 0x1BA JUMPI PUSH1 0x0 DUP1 REVERT JUMPDEST POP PUSH2 0x1D5 PUSH1 0x4 DUP1 CALLDATASIZE SUB DUP2 ADD SWAP1 PUSH2 0x1D0 SWAP2 SWAP1 PUSH2 0xE99 JUMP JUMPDEST PUSH2 0x491 JUMP JUMPDEST PUSH1 0x40 MLOAD PUSH2 0x1E6 SWAP6 SWAP5 SWAP4 SWAP3 SWAP2 SWAP1 PUSH2 0xFC1 JUMP JUMPDEST PUSH1 0x40 MLOAD DUP1 SWAP2 SUB SWAP1 RETURN JUMPDEST CALLVALUE DUP1 ISZERO PUSH2 0x1FB JUMPI PUSH1 0x0 DUP1 REVERT JUMPDEST POP PUSH2 0x216 PUSH1 0x4 DUP1 CALLDATASIZE SUB DUP2 ADD SWAP1 PUSH2 0x211 SWAP2 SWAP1 PUSH2 0x1047 JUMP JUMPDEST PUSH2 0x57C JUMP JUMPDEST PUSH1 0x40 MLOAD PUSH2 0x223 SWAP2 SWAP1 PUSH2 0x1074 JUMP JUMPDEST PUSH1 0x40 MLOAD DUP1 SWAP2 SUB SWAP1 RETURN JUMPDEST CALLVALUE DUP1 ISZERO PUSH2 0x238 JUMPI PUSH1 0x0 DUP1 REVERT JUMPDEST POP PUSH2 0x253 PUSH1 0x4 DUP1 CALLDATASIZE SUB DUP2 ADD SWAP1 PUSH2 0x24E SWAP2 SWAP1 PUSH2 0x108F JUMP JUMPDEST PUSH2 0x59C JUMP JUMPDEST STOP JUMPDEST CALLVALUE DUP1 ISZERO PUSH2 0x261 JUMPI PUSH1 0x0 DUP1 REVERT JUMPDEST POP PUSH2 0x26A PUSH2 0x5DA JUMP JUMPDEST PUSH1 0x40 MLOAD PUSH2 0x277 SWAP2 SWAP1 PUSH2 0xCD9 JUMP JUMPDEST PUSH1 0x40 MLOAD DUP1 SWAP2 SUB SWAP1 RETURN JUMPDEST CALLVALUE DUP1 ISZERO PUSH2 0x28C JUMPI PUSH1 0x0 DUP1 REVERT JUMPDEST POP PUSH2 0x2A7 PUSH1 0x4 DUP1 CALLDATASIZE SUB DUP2 ADD SWAP1 PUSH2 0x2A2 SWAP2 SWAP1 PUSH2 0x108F JUMP JUMPDEST PUSH2 0x5F0 JUMP JUMPDEST STOP JUMPDEST CALLVALUE DUP1 ISZERO PUSH2 0x2B5 JUMPI PUSH1 0x0 DUP1 REVERT JUMPDEST POP PUSH2 0x2D0 PUSH1 0x4 DUP1 CALLDATASIZE SUB DUP2 ADD SWAP1 PUSH2 0x2CB SWAP2 SWAP1 PUSH2 0xE99 JUMP JUMPDEST PUSH2 0xA11 JUMP JUMPDEST STOP JUMPDEST PUSH2 0x2EC PUSH1 0x4 DUP1 CALLDATASIZE SUB DUP2 ADD SWAP1 PUSH2 0x2E7 SWAP2 SWAP1 PUSH2 0x10FB JUMP JUMPDEST PUSH2 0xA4B JUMP JUMPDEST STOP JUMPDEST PUSH2 0x308 PUSH1 0x4 DUP1 CALLDATASIZE SUB DUP2 ADD SWAP1 PUSH2 0x303 SWAP2 SWAP1 PUSH2 0xE99 JUMP JUMPDEST PUSH2 0xB98 JUMP JUMPDEST STOP JUMPDEST PUSH1 0x1 PUSH1 0x4 SWAP1 SLOAD SWAP1 PUSH2 0x100 EXP SWAP1 DIV PUSH4 0xFFFFFFFF AND DUP2 JUMP JUMPDEST PUSH1 0x0 PUSH20 0xFFFFFFFFFFFFFFFFFFFFFFFFFFFFFFFFFFFFFFFF AND PUSH1 0x4 PUSH1 0x0 DUP6 DUP2 MSTORE PUSH1 0x20 ADD SWAP1 DUP2 MSTORE PUSH1 0x20 ADD PUSH1 0x0 KECCAK256 PUSH1 0x0 ADD PUSH1 0x0 SWAP1 SLOAD SWAP1 PUSH2 0x100 EXP SWAP1 DIV PUSH20 0xFFFFFFFFFFFFFFFFFFFFFFFFFFFFFFFFFFFFFFFF AND PUSH20 0xFFFFFFFFFFFFFFFFFFFFFFFFFFFFFFFFFFFFFFFF AND SUB PUSH2 0x38F JUMPI PUSH1 0x0 DUP1 REVERT JUMPDEST DUP2 DUP2 PUSH1 0x4 PUSH1 0x0 DUP7 DUP2 MSTORE PUSH1 0x20 ADD SWAP1 DUP2 MSTORE PUSH1 0x20 ADD PUSH1 0x0 KECCAK256 PUSH1 0x5 ADD SWAP2 DUP3 PUSH2 0x3B4 SWAP3 SWAP2 SWAP1 PUSH2 0x1381 JUMP JUMPDEST POP PUSH1 0x4 PUSH1 0x0 DUP5 DUP2 MSTORE PUSH1 0x20 ADD SWAP1 DUP2 MSTORE PUSH1 0x20 ADD PUSH1 0x0 KECCAK256 PUSH1 0x4 ADD PUSH1 0x0 SWAP1 SLOAD SWAP1 PUSH2 0x100 EXP SWAP1 DIV PUSH1 0xFF AND ISZERO PUSH2 0x43C JUMPI CALLER PUSH20 0xFFFFFFFFFFFFFFFFFFFFFFFFFFFFFFFFFFFFFFFF AND PUSH2 0x8FC PUSH1 0x4 PUSH1 0x0 DUP7 DUP2 MSTORE PUSH1 0x20 ADD SWAP1 DUP2 MSTORE PUSH1 0x20 ADD PUSH1 0x0 KECCAK256 PUSH1 0x6 ADD SLOAD SWAP1 DUP2 ISZERO MUL SWAP1 PUSH1 0x40 MLOAD PUSH1 0x0 PUSH1 0x40 MLOAD DUP1 DUP4 SUB DUP2 DUP6 DUP9 DUP9 CALL SWAP4 POP POP POP POP ISZERO DUP1 ISZERO PUSH2 0x43A JUMPI RETURNDATASIZE PUSH1 0x0 DUP1 RETURNDATACOPY RETURNDATASIZE PUSH1 0x0 REVERT JUMPDEST POP JUMPDEST POP POP POP JUMP JUMPDEST PUSH1 0x1 PUSH1 0x0 SWAP1 SLOAD SWAP1 PUSH2 0x100 EXP SWAP1 DIV PUSH4 0xFFFFFFFF AND DUP2 JUMP JUMPDEST PUSH1 0x0 DUP1 SLOAD SWAP1 POP SWAP1 JUMP JUMPDEST PUSH1 0x3 PUSH1 0x20 MSTORE DUP2 PUSH1 0x0 MSTORE PUSH1 0x40 PUSH1 0x0 KECCAK256 DUP2 DUP2 SLOAD DUP2 LT PUSH2 0x47C JUMPI PUSH1 0x0 DUP1 REVERT JUMPDEST SWAP1 PUSH1 0x0 MSTORE PUSH1 0x20 PUSH1 0x0 KECCAK256 ADD PUSH1 0x0 SWAP2 POP SWAP2 POP POP SLOAD DUP2 JUMP JUMPDEST PUSH1 0x4 PUSH1 0x20 MSTORE DUP1 PUSH1 0x0 MSTORE PUSH1 0x40 PUSH1 0x0 KECCAK256 PUSH1 0x0 SWAP2 POP SWAP1 POP DUP1 PUSH1 0x0 ADD PUSH1 0x0 SWAP1 SLOAD SWAP1 PUSH2 0x100 EXP SWAP1 DIV PUSH20 0xFFFFFFFFFFFFFFFFFFFFFFFFFFFFFFFFFFFFFFFF AND SWAP1 DUP1 PUSH1 0x1 ADD SLOAD SWAP1 DUP1 PUSH1 0x4 ADD PUSH1 0x0 SWAP1 SLOAD SWAP1 PUSH2 0x100 EXP SWAP1 DIV PUSH1 0xFF AND SWAP1 DUP1 PUSH1 0x5 ADD DUP1 SLOAD PUSH2 0x4F3 SWAP1 PUSH2 0x11A4 JUMP JUMPDEST DUP1 PUSH1 0x1F ADD PUSH1 0x20 DUP1 SWAP2 DIV MUL PUSH1 0x20 ADD PUSH1 0x40 MLOAD SWAP1 DUP2 ADD PUSH1 0x40 MSTORE DUP1 SWAP3 SWAP2 SWAP1 DUP2 DUP2 MSTORE PUSH1 0x20 ADD DUP3 DUP1 SLOAD PUSH2 0x51F SWAP1 PUSH2 0x11A4 JUMP JUMPDEST DUP1 ISZERO PUSH2 0x56C JUMPI DUP1 PUSH1 0x1F LT PUSH2 0x541 JUMPI PUSH2 0x100 DUP1 DUP4 SLOAD DIV MUL DUP4 MSTORE SWAP2 PUSH1 0x20 ADD SWAP2 PUSH2 0x56C JUMP JUMPDEST DUP3 ADD SWAP2 SWAP1 PUSH1 0x0 MSTORE PUSH1 0x20 PUSH1 0x0 KECCAK256 SWAP1 JUMPDEST DUP2 SLOAD DUP2 MSTORE SWAP1 PUSH1 0x1 ADD SWAP1 PUSH1 0x20 ADD DUP1 DUP4 GT PUSH2 0x54F JUMPI DUP3 SWAP1 SUB PUSH1 0x1F AND DUP3 ADD SWAP2 JUMPDEST POP POP POP POP POP SWAP1 DUP1 PUSH1 0x6 ADD SLOAD SWAP1 POP DUP6 JUMP JUMPDEST PUSH1 0x2 PUSH1 0x20 MSTORE DUP1 PUSH1 0x0 MSTORE PUSH1 0x40 PUSH1 0x0 KECCAK256 PUSH1 0x0 SWAP2 POP SLOAD SWAP1 PUSH2 0x100 EXP SWAP1 DIV PUSH1 0xFF AND DUP2 JUMP JUMPDEST PUSH1 0x3 PUSH1 0x0 DUP4 DUP2 MSTORE PUSH1 0x20 ADD SWAP1 DUP2 MSTORE PUSH1 0x20 ADD PUSH1 0x0 KECCAK256 DUP2 SWAP1 DUP1 PUSH1 0x1 DUP2 SLOAD ADD DUP1 DUP3 SSTORE DUP1 SWAP2 POP POP PUSH1 0x1 SWAP1 SUB SWAP1 PUSH1 0x0 MSTORE PUSH1 0x20 PUSH1 0x0 KECCAK256 ADD PUSH1 0x0 SWAP1 SWAP2 SWAP1 SWAP2 SWAP1 SWAP2 POP SSTORE POP POP JUMP JUMPDEST PUSH1 0x1 PUSH1 0x8 SWAP1 SLOAD SWAP1 PUSH2 0x100 EXP SWAP1 DIV PUSH4 0xFFFFFFFF AND DUP2 JUMP JUMPDEST PUSH1 0x2 PUSH1 0x0 CALLER PUSH20 0xFFFFFFFFFFFFFFFFFFFFFFFFFFFFFFFFFFFFFFFF AND PUSH20 0xFFFFFFFFFFFFFFFFFFFFFFFFFFFFFFFFFFFFFFFF AND DUP2 MSTORE PUSH1 0x20 ADD SWAP1 DUP2 MSTORE PUSH1 0x20 ADD PUSH1 0x0 KECCAK256 PUSH1 0x0 SWAP1 SLOAD SWAP1 PUSH2 0x100 EXP SWAP1 DIV PUSH1 0xFF AND PUSH2 0x67C JUMPI PUSH1 0x40 MLOAD PUSH32 0x8C379A000000000000000000000000000000000000000000000000000000000 DUP2 MSTORE PUSH1 0x4 ADD PUSH2 0x673 SWAP1 PUSH2 0x14C3 JUMP JUMPDEST PUSH1 0x40 MLOAD DUP1 SWAP2 SUB SWAP1 REVERT JUMPDEST PUSH1 0x1 PUSH1 0x8 SWAP1 SLOAD SWAP1 PUSH2 0x100 EXP SWAP1 DIV PUSH4 0xFFFFFFFF AND PUSH4 0xFFFFFFFF AND PUSH1 0x4 PUSH1 0x0 DUP5 DUP2 MSTORE PUSH1 0x20 ADD SWAP1 DUP2 MSTORE PUSH1 0x20 ADD PUSH1 0x0 KECCAK256 PUSH1 0x1 ADD SLOAD PUSH2 0x6B6 SWAP2 SWAP1 PUSH2 0x1512 JUMP JUMPDEST NUMBER GT ISZERO PUSH2 0x6F8 JUMPI PUSH1 0x40 MLOAD PUSH32 0x8C379A000000000000000000000000000000000000000000000000000000000 DUP2 MSTORE PUSH1 0x4 ADD PUSH2 0x6EF SWAP1 PUSH2 0x15B8 JUMP JUMPDEST PUSH1 0x40 MLOAD DUP1 SWAP2 SUB SWAP1 REVERT JUMPDEST PUSH1 0x0 JUMPDEST PUSH1 0x4 PUSH1 0x0 DUP5 DUP2 MSTORE PUSH1 0x20 ADD SWAP1 DUP2 MSTORE PUSH1 0x20 ADD PUSH1 0x0 KECCAK256 PUSH1 0x2 ADD DUP1 SLOAD SWAP1 POP DUP2 LT ISZERO PUSH2 0x7EF JUMPI CALLER PUSH20 0xFFFFFFFFFFFFFFFFFFFFFFFFFFFFFFFFFFFFFFFF AND PUSH1 0x4 PUSH1 0x0 DUP6 DUP2 MSTORE PUSH1 0x20 ADD SWAP1 DUP2 MSTORE PUSH1 0x20 ADD PUSH1 0x0 KECCAK256 PUSH1 0x2 ADD DUP3 DUP2 SLOAD DUP2 LT PUSH2 0x75B JUMPI PUSH2 0x75A PUSH2 0x15D8 JUMP JUMPDEST JUMPDEST SWAP1 PUSH1 0x0 MSTORE PUSH1 0x20 PUSH1 0x0 KECCAK256 ADD PUSH1 0x0 SWAP1 SLOAD SWAP1 PUSH2 0x100 EXP SWAP1 DIV PUSH20 0xFFFFFFFFFFFFFFFFFFFFFFFFFFFFFFFFFFFFFFFF AND PUSH20 0xFFFFFFFFFFFFFFFFFFFFFFFFFFFFFFFFFFFFFFFF AND SUB PUSH2 0x7DC JUMPI PUSH1 0x40 MLOAD PUSH32 0x8C379A000000000000000000000000000000000000000000000000000000000 DUP2 MSTORE PUSH1 0x4 ADD PUSH2 0x7D3 SWAP1 PUSH2 0x1679 JUMP JUMPDEST PUSH1 0x40 MLOAD DUP1 SWAP2 SUB SWAP1 REVERT JUMPDEST DUP1 DUP1 PUSH2 0x7E7 SWAP1 PUSH2 0x1699 JUMP JUMPDEST SWAP2 POP POP PUSH2 0x6FB JUMP JUMPDEST POP CALLER PUSH20 0xFFFFFFFFFFFFFFFFFFFFFFFFFFFFFFFFFFFFFFFF AND PUSH2 0x8FC PUSH1 0x1 PUSH1 0x4 SWAP1 SLOAD SWAP1 PUSH2 0x100 EXP SWAP1 DIV PUSH4 0xFFFFFFFF AND PUSH1 0x1 PUSH1 0xC SWAP1 SLOAD SWAP1 PUSH2 0x100 EXP SWAP1 DIV PUSH4 0xFFFFFFFF AND PUSH2 0x83A SWAP2 SWAP1 PUSH2 0x1710 JUMP JUMPDEST PUSH4 0xFFFFFFFF AND SWAP1 DUP2 ISZERO MUL SWAP1 PUSH1 0x40 MLOAD PUSH1 0x0 PUSH1 0x40 MLOAD DUP1 DUP4 SUB DUP2 DUP6 DUP9 DUP9 CALL SWAP4 POP POP POP POP ISZERO DUP1 ISZERO PUSH2 0x86B JUMPI RETURNDATASIZE PUSH1 0x0 DUP1 RETURNDATACOPY RETURNDATASIZE PUSH1 0x0 REVERT JUMPDEST POP PUSH1 0x4 PUSH1 0x0 DUP4 DUP2 MSTORE PUSH1 0x20 ADD SWAP1 DUP2 MSTORE PUSH1 0x20 ADD PUSH1 0x0 KECCAK256 PUSH1 0x3 ADD DUP2 SWAP1 DUP1 PUSH1 0x1 DUP2 SLOAD ADD DUP1 DUP3 SSTORE DUP1 SWAP2 POP POP PUSH1 0x1 SWAP1 SUB SWAP1 PUSH1 0x0 MSTORE PUSH1 0x20 PUSH1 0x0 KECCAK256 ADD PUSH1 0x0 SWAP1 SWAP2 SWAP1 SWAP2 SWAP1 SWAP2 POP SSTORE PUSH1 0x4 PUSH1 0x0 DUP4 DUP2 MSTORE PUSH1 0x20 ADD SWAP1 DUP2 MSTORE PUSH1 0x20 ADD PUSH1 0x0 KECCAK256 PUSH1 0x2 ADD CALLER SWAP1 DUP1 PUSH1 0x1 DUP2 SLOAD ADD DUP1 DUP3 SSTORE DUP1 SWAP2 POP POP PUSH1 0x1 SWAP1 SUB SWAP1 PUSH1 0x0 MSTORE PUSH1 0x20 PUSH1 0x0 KECCAK256 ADD PUSH1 0x0 SWAP1 SWAP2 SWAP1 SWAP2 SWAP1 SWAP2 PUSH2 0x100 EXP DUP2 SLOAD DUP2 PUSH20 0xFFFFFFFFFFFFFFFFFFFFFFFFFFFFFFFFFFFFFFFF MUL NOT AND SWAP1 DUP4 PUSH20 0xFFFFFFFFFFFFFFFFFFFFFFFFFFFFFFFFFFFFFFFF AND MUL OR SWAP1 SSTORE POP PUSH1 0x1 PUSH1 0x0 SWAP1 SLOAD SWAP1 PUSH2 0x100 EXP SWAP1 DIV PUSH4 0xFFFFFFFF AND PUSH4 0xFFFFFFFF AND PUSH1 0x4 PUSH1 0x0 DUP5 DUP2 MSTORE PUSH1 0x20 ADD SWAP1 DUP2 MSTORE PUSH1 0x20 ADD PUSH1 0x0 KECCAK256 PUSH1 0x3 ADD DUP1 SLOAD SWAP1 POP LT PUSH2 0xA0D JUMPI PUSH1 0x4 PUSH1 0x0 DUP4 DUP2 MSTORE PUSH1 0x20 ADD SWAP1 DUP2 MSTORE PUSH1 0x20 ADD PUSH1 0x0 KECCAK256 PUSH1 0x4 ADD PUSH1 0x0 SWAP1 SLOAD SWAP1 PUSH2 0x100 EXP SWAP1 DIV PUSH1 0xFF AND PUSH2 0x9BC JUMPI PUSH32 0x3A98A0C4D082A0DE73BF3517A925253EF2734009F3658FAF1DEA6FDA3A077511 DUP3 PUSH1 0x40 MLOAD PUSH2 0x9AF SWAP2 SWAP1 PUSH2 0xE08 JUMP JUMPDEST PUSH1 0x40 MLOAD DUP1 SWAP2 SUB SWAP1 LOG1 PUSH2 0xA0C JUMP JUMPDEST PUSH32 0x47809C742D6A78F90B32BEA12241727704690A861A68BA6DE574BD94E0300C59 DUP3 PUSH1 0x4 PUSH1 0x0 DUP6 DUP2 MSTORE PUSH1 0x20 ADD SWAP1 DUP2 MSTORE PUSH1 0x20 ADD PUSH1 0x0 KECCAK256 PUSH1 0x6 ADD SLOAD PUSH1 0x40 MLOAD PUSH2 0xA03 SWAP3 SWAP2 SWAP1 PUSH2 0x1741 JUMP JUMPDEST PUSH1 0x40 MLOAD DUP1 SWAP2 SUB SWAP1 LOG1 JUMPDEST JUMPDEST POP POP JUMP JUMPDEST PUSH32 0xF038F3EF493C9873DB4722EA4D338910A38691891FC5C58BE1FF60EA1C67091C DUP2 PUSH1 0x40 MLOAD PUSH2 0xA40 SWAP2 SWAP1 PUSH2 0xE08 JUMP JUMPDEST PUSH1 0x40 MLOAD DUP1 SWAP2 SUB SWAP1 LOG1 POP JUMP JUMPDEST CALLER PUSH20 0xFFFFFFFFFFFFFFFFFFFFFFFFFFFFFFFFFFFFFFFF AND PUSH1 0x4 PUSH1 0x0 DUP5 DUP2 MSTORE PUSH1 0x20 ADD SWAP1 DUP2 MSTORE PUSH1 0x20 ADD PUSH1 0x0 KECCAK256 PUSH1 0x0 ADD PUSH1 0x0 SWAP1 SLOAD SWAP1 PUSH2 0x100 EXP SWAP1 DIV PUSH20 0xFFFFFFFFFFFFFFFFFFFFFFFFFFFFFFFFFFFFFFFF AND PUSH20 0xFFFFFFFFFFFFFFFFFFFFFFFFFFFFFFFFFFFFFFFF AND EQ PUSH2 0xAEF JUMPI PUSH1 0x40 MLOAD PUSH32 0x8C379A000000000000000000000000000000000000000000000000000000000 DUP2 MSTORE PUSH1 0x4 ADD PUSH2 0xAE6 SWAP1 PUSH2 0x17DC JUMP JUMPDEST PUSH1 0x40 MLOAD DUP1 SWAP2 SUB SWAP1 REVERT JUMPDEST PUSH32 0x129771835890F568A463B5138A64C652DA11FE24F9DA1738C797B16407066627 DUP3 DUP3 PUSH1 0x40 MLOAD PUSH2 0xB20 SWAP3 SWAP2 SWAP1 PUSH2 0x17FC JUMP JUMPDEST PUSH1 0x40 MLOAD DUP1 SWAP2 SUB SWAP1 LOG1 NUMBER PUSH1 0x4 PUSH1 0x0 DUP5 DUP2 MSTORE PUSH1 0x20 ADD SWAP1 DUP2 MSTORE PUSH1 0x20 ADD PUSH1 0x0 KECCAK256 PUSH1 0x1 ADD DUP2 SWAP1 SSTORE POP DUP1 ISZERO PUSH2 0xB94 JUMPI CALLVALUE PUSH1 0x4 PUSH1 0x0 DUP5 DUP2 MSTORE PUSH1 0x20 ADD SWAP1 DUP2 MSTORE PUSH1 0x20 ADD PUSH1 0x0 KECCAK256 PUSH1 0x6 ADD DUP2 SWAP1 SSTORE POP PUSH1 0x1 PUSH1 0x4 PUSH1 0x0 DUP5 DUP2 MSTORE PUSH1 0x20 ADD SWAP1 DUP2 MSTORE PUSH1 0x20 ADD PUSH1 0x0 KECCAK256 PUSH1 0x4 ADD PUSH1 0x0 PUSH2 0x100 EXP DUP2 SLOAD DUP2 PUSH1 0xFF MUL NOT AND SWAP1 DUP4 ISZERO ISZERO MUL OR SWAP1 SSTORE POP JUMPDEST POP POP JUMP JUMPDEST PUSH1 0x0 PUSH20 0xFFFFFFFFFFFFFFFFFFFFFFFFFFFFFFFFFFFFFFFF AND PUSH1 0x4 PUSH1 0x0 DUP4 DUP2 MSTORE PUSH1 0x20 ADD SWAP1 DUP2 MSTORE PUSH1 0x20 ADD PUSH1 0x0 KECCAK256 PUSH1 0x0 ADD PUSH1 0x0 SWAP1 SLOAD SWAP1 PUSH2 0x100 EXP SWAP1 DIV PUSH20 0xFFFFFFFFFFFFFFFFFFFFFFFFFFFFFFFFFFFFFFFF AND PUSH20 0xFFFFFFFFFFFFFFFFFFFFFFFFFFFFFFFFFFFFFFFF AND EQ PUSH2 0xC3D JUMPI PUSH1 0x40 MLOAD PUSH32 0x8C379A000000000000000000000000000000000000000000000000000000000 DUP2 MSTORE PUSH1 0x4 ADD PUSH2 0xC34 SWAP1 PUSH2 0x1897 JUMP JUMPDEST PUSH1 0x40 MLOAD DUP1 SWAP2 SUB SWAP1 REVERT JUMPDEST PUSH1 0x1 PUSH1 0xC SWAP1 SLOAD SWAP1 PUSH2 0x100 EXP SWAP1 DIV PUSH4 0xFFFFFFFF AND PUSH4 0xFFFFFFFF AND CALLVALUE LT ISZERO PUSH2 0xC62 JUMPI PUSH1 0x0 DUP1 REVERT JUMPDEST CALLER PUSH1 0x4 PUSH1 0x0 DUP4 DUP2 MSTORE PUSH1 0x20 ADD SWAP1 DUP2 MSTORE PUSH1 0x20 ADD PUSH1 0x0 KECCAK256 PUSH1 0x0 ADD PUSH1 0x0 PUSH2 0x100 EXP DUP2 SLOAD DUP2 PUSH20 0xFFFFFFFFFFFFFFFFFFFFFFFFFFFFFFFFFFFFFFFF MUL NOT AND SWAP1 DUP4 PUSH20 0xFFFFFFFFFFFFFFFFFFFFFFFFFFFFFFFFFFFFFFFF AND MUL OR SWAP1 SSTORE POP POP JUMP JUMPDEST PUSH1 0x0 PUSH4 0xFFFFFFFF DUP3 AND SWAP1 POP SWAP2 SWAP1 POP JUMP JUMPDEST PUSH2 0xCD3 DUP2 PUSH2 0xCBA JUMP JUMPDEST DUP3 MSTORE POP POP JUMP JUMPDEST PUSH1 0x0 PUSH1 0x20 DUP3 ADD SWAP1 POP PUSH2 0xCEE PUSH1 0x0 DUP4 ADD DUP5 PUSH2 0xCCA JUMP JUMPDEST SWAP3 SWAP2 POP POP JUMP JUMPDEST PUSH1 0x0 DUP1 REVERT JUMPDEST PUSH1 0x0 DUP1 REVERT JUMPDEST PUSH1 0x0 DUP2 SWAP1 POP SWAP2 SWAP1 POP JUMP JUMPDEST PUSH2 0xD11 DUP2 PUSH2 0xCFE JUMP JUMPDEST DUP2 EQ PUSH2 0xD1C JUMPI PUSH1 0x0 DUP1 REVERT JUMPDEST POP JUMP JUMPDEST PUSH1 0x0 DUP2 CALLDATALOAD SWAP1 POP PUSH2 0xD2E DUP2 PUSH2 0xD08 JUMP JUMPDEST SWAP3 SWAP2 POP POP JUMP JUMPDEST PUSH1 0x0 DUP1 REVERT JUMPDEST PUSH1 0x0 DUP1 REVERT JUMPDEST PUSH1 0x0 DUP1 REVERT JUMPDEST PUSH1 0x0 DUP1 DUP4 PUSH1 0x1F DUP5 ADD SLT PUSH2 0xD59 JUMPI PUSH2 0xD58 PUSH2 0xD34 JUMP JUMPDEST JUMPDEST DUP3 CALLDATALOAD SWAP1 POP PUSH8 0xFFFFFFFFFFFFFFFF DUP2 GT ISZERO PUSH2 0xD76 JUMPI PUSH2 0xD75 PUSH2 0xD39 JUMP JUMPDEST JUMPDEST PUSH1 0x20 DUP4 ADD SWAP2 POP DUP4 PUSH1 0x1 DUP3 MUL DUP4 ADD GT ISZERO PUSH2 0xD92 JUMPI PUSH2 0xD91 PUSH2 0xD3E JUMP JUMPDEST JUMPDEST SWAP3 POP SWAP3 SWAP1 POP JUMP JUMPDEST PUSH1 0x0 DUP1 PUSH1 0x0 PUSH1 0x40 DUP5 DUP7 SUB SLT ISZERO PUSH2 0xDB2 JUMPI PUSH2 0xDB1 PUSH2 0xCF4 JUMP JUMPDEST JUMPDEST PUSH1 0x0 PUSH2 0xDC0 DUP7 DUP3 DUP8 ADD PUSH2 0xD1F JUMP JUMPDEST SWAP4 POP POP PUSH1 0x20 DUP5 ADD CALLDATALOAD PUSH8 0xFFFFFFFFFFFFFFFF DUP2 GT ISZERO PUSH2 0xDE1 JUMPI PUSH2 0xDE0 PUSH2 0xCF9 JUMP JUMPDEST JUMPDEST PUSH2 0xDED DUP7 DUP3 DUP8 ADD PUSH2 0xD43 JUMP JUMPDEST SWAP3 POP SWAP3 POP POP SWAP3 POP SWAP3 POP SWAP3 JUMP JUMPDEST PUSH2 0xE02 DUP2 PUSH2 0xCFE JUMP JUMPDEST DUP3 MSTORE POP POP JUMP JUMPDEST PUSH1 0x0 PUSH1 0x20 DUP3 ADD SWAP1 POP PUSH2 0xE1D PUSH1 0x0 DUP4 ADD DUP5 PUSH2 0xDF9 JUMP JUMPDEST SWAP3 SWAP2 POP POP JUMP JUMPDEST PUSH1 0x0 DUP2 SWAP1 POP SWAP2 SWAP1 POP JUMP JUMPDEST PUSH2 0xE36 DUP2 PUSH2 0xE23 JUMP JUMPDEST DUP2 EQ PUSH2 0xE41 JUMPI PUSH1 0x0 DUP1 REVERT JUMPDEST POP JUMP JUMPDEST PUSH1 0x0 DUP2 CALLDATALOAD SWAP1 POP PUSH2 0xE53 DUP2 PUSH2 0xE2D JUMP JUMPDEST SWAP3 SWAP2 POP POP JUMP JUMPDEST PUSH1 0x0 DUP1 PUSH1 0x40 DUP4 DUP6 SUB SLT ISZERO PUSH2 0xE70 JUMPI PUSH2 0xE6F PUSH2 0xCF4 JUMP JUMPDEST JUMPDEST PUSH1 0x0 PUSH2 0xE7E DUP6 DUP3 DUP7 ADD PUSH2 0xD1F JUMP JUMPDEST SWAP3 POP POP PUSH1 0x20 PUSH2 0xE8F DUP6 DUP3 DUP7 ADD PUSH2 0xE44 JUMP JUMPDEST SWAP2 POP POP SWAP3 POP SWAP3 SWAP1 POP JUMP JUMPDEST PUSH1 0x0 PUSH1 0x20 DUP3 DUP5 SUB SLT ISZERO PUSH2 0xEAF JUMPI PUSH2 0xEAE PUSH2 0xCF4 JUMP JUMPDEST JUMPDEST PUSH1 0x0 PUSH2 0xEBD DUP5 DUP3 DUP6 ADD PUSH2 0xD1F JUMP JUMPDEST SWAP2 POP POP SWAP3 SWAP2 POP POP JUMP JUMPDEST PUSH1 0x0 PUSH20 0xFFFFFFFFFFFFFFFFFFFFFFFFFFFFFFFFFFFFFFFF DUP3 AND SWAP1 POP SWAP2 SWAP1 POP JUMP JUMPDEST PUSH1 0x0 PUSH2 0xEF1 DUP3 PUSH2 0xEC6 JUMP JUMPDEST SWAP1 POP SWAP2 SWAP1 POP JUMP JUMPDEST PUSH2 0xF01 DUP2 PUSH2 0xEE6 JUMP JUMPDEST DUP3 MSTORE POP POP JUMP JUMPDEST PUSH2 0xF10 DUP2 PUSH2 0xE23 JUMP JUMPDEST DUP3 MSTORE POP POP JUMP JUMPDEST PUSH1 0x0 DUP2 ISZERO ISZERO SWAP1 POP SWAP2 SWAP1 POP JUMP JUMPDEST PUSH2 0xF2B DUP2 PUSH2 0xF16 JUMP JUMPDEST DUP3 MSTORE POP POP JUMP JUMPDEST PUSH1 0x0 DUP2 MLOAD SWAP1 POP SWAP2 SWAP1 POP JUMP JUMPDEST PUSH1 0x0 DUP3 DUP3 MSTORE PUSH1 0x20 DUP3 ADD SWAP1 POP SWAP3 SWAP2 POP POP JUMP JUMPDEST PUSH1 0x0 JUMPDEST DUP4 DUP2 LT ISZERO PUSH2 0xF6B JUMPI DUP1 DUP3 ADD MLOAD DUP2 DUP5 ADD MSTORE PUSH1 0x20 DUP2 ADD SWAP1 POP PUSH2 0xF50 JUMP JUMPDEST PUSH1 0x0 DUP5 DUP5 ADD MSTORE POP POP POP POP JUMP JUMPDEST PUSH1 0x0 PUSH1 0x1F NOT PUSH1 0x1F DUP4 ADD AND SWAP1 POP SWAP2 SWAP1 POP JUMP JUMPDEST PUSH1 0x0 PUSH2 0xF93 DUP3 PUSH2 0xF31 JUMP JUMPDEST PUSH2 0xF9D DUP2 DUP6 PUSH2 0xF3C JUMP JUMPDEST SWAP4 POP PUSH2 0xFAD DUP2 DUP6 PUSH1 0x20 DUP7 ADD PUSH2 0xF4D JUMP JUMPDEST PUSH2 0xFB6 DUP2 PUSH2 0xF77 JUMP JUMPDEST DUP5 ADD SWAP2 POP POP SWAP3 SWAP2 POP POP JUMP JUMPDEST PUSH1 0x0 PUSH1 0xA0 DUP3 ADD SWAP1 POP PUSH2 0xFD6 PUSH1 0x0 DUP4 ADD DUP9 PUSH2 0xEF8 JUMP JUMPDEST PUSH2 0xFE3 PUSH1 0x20 DUP4 ADD DUP8 PUSH2 0xF07 JUMP JUMPDEST PUSH2 0xFF0 PUSH1 0x40 DUP4 ADD DUP7 PUSH2 0xF22 JUMP JUMPDEST DUP2 DUP2 SUB PUSH1 0x60 DUP4 ADD MSTORE PUSH2 0x1002 DUP2 DUP6 PUSH2 0xF88 JUMP JUMPDEST SWAP1 POP PUSH2 0x1011 PUSH1 0x80 DUP4 ADD DUP5 PUSH2 0xF07 JUMP JUMPDEST SWAP7 SWAP6 POP POP POP POP POP POP JUMP JUMPDEST PUSH2 0x1024 DUP2 PUSH2 0xEE6 JUMP JUMPDEST DUP2 EQ PUSH2 0x102F JUMPI PUSH1 0x0 DUP1 REVERT JUMPDEST POP JUMP JUMPDEST PUSH1 0x0 DUP2 CALLDATALOAD SWAP1 POP PUSH2 0x1041 DUP2 PUSH2 0x101B JUMP JUMPDEST SWAP3 SWAP2 POP POP JUMP JUMPDEST PUSH1 0x0 PUSH1 0x20 DUP3 DUP5 SUB SLT ISZERO PUSH2 0x105D JUMPI PUSH2 0x105C PUSH2 0xCF4 JUMP JUMPDEST JUMPDEST PUSH1 0x0 PUSH2 0x106B DUP5 DUP3 DUP6 ADD PUSH2 0x1032 JUMP JUMPDEST SWAP2 POP POP SWAP3 SWAP2 POP POP JUMP JUMPDEST PUSH1 0x0 PUSH1 0x20 DUP3 ADD SWAP1 POP PUSH2 0x1089 PUSH1 0x0 DUP4 ADD DUP5 PUSH2 0xF22 JUMP JUMPDEST SWAP3 SWAP2 POP POP JUMP JUMPDEST PUSH1 0x0 DUP1 PUSH1 0x40 DUP4 DUP6 SUB SLT ISZERO PUSH2 0x10A6 JUMPI PUSH2 0x10A5 PUSH2 0xCF4 JUMP JUMPDEST JUMPDEST PUSH1 0x0 PUSH2 0x10B4 DUP6 DUP3 DUP7 ADD PUSH2 0xD1F JUMP JUMPDEST SWAP3 POP POP PUSH1 0x20 PUSH2 0x10C5 DUP6 DUP3 DUP7 ADD PUSH2 0xD1F JUMP JUMPDEST SWAP2 POP POP SWAP3 POP SWAP3 SWAP1 POP JUMP JUMPDEST PUSH2 0x10D8 DUP2 PUSH2 0xF16 JUMP JUMPDEST DUP2 EQ PUSH2 0x10E3 JUMPI PUSH1 0x0 DUP1 REVERT JUMPDEST POP JUMP JUMPDEST PUSH1 0x0 DUP2 CALLDATALOAD SWAP1 POP PUSH2 0x10F5 DUP2 PUSH2 0x10CF JUMP JUMPDEST SWAP3 SWAP2 POP POP JUMP JUMPDEST PUSH1 0x0 DUP1 PUSH1 0x40 DUP4 DUP6 SUB SLT ISZERO PUSH2 0x1112 JUMPI PUSH2 0x1111 PUSH2 0xCF4 JUMP JUMPDEST JUMPDEST PUSH1 0x0 PUSH2 0x1120 DUP6 DUP3 DUP7 ADD PUSH2 0xD1F JUMP JUMPDEST SWAP3 POP POP PUSH1 0x20 PUSH2 0x1131 DUP6 DUP3 DUP7 ADD PUSH2 0x10E6 JUMP JUMPDEST SWAP2 POP POP SWAP3 POP SWAP3 SWAP1 POP JUMP JUMPDEST PUSH1 0x0 DUP3 SWAP1 POP SWAP3 SWAP2 POP POP JUMP JUMPDEST PUSH32 0x4E487B7100000000000000000000000000000000000000000000000000000000 PUSH1 0x0 MSTORE PUSH1 0x41 PUSH1 0x4 MSTORE PUSH1 0x24 PUSH1 0x0 REVERT JUMPDEST PUSH32 0x4E487B7100000000000000000000000000000000000000000000000000000000 PUSH1 0x0 MSTORE PUSH1 0x22 PUSH1 0x4 MSTORE PUSH1 0x24 PUSH1 0x0 REVERT JUMPDEST PUSH1 0x0 PUSH1 0x2 DUP3 DIV SWAP1 POP PUSH1 0x1 DUP3 AND DUP1 PUSH2 0x11BC JUMPI PUSH1 0x7F DUP3 AND SWAP2 POP JUMPDEST PUSH1 0x20 DUP3 LT DUP2 SUB PUSH2 0x11CF JUMPI PUSH2 0x11CE PUSH2 0x1175 JUMP JUMPDEST JUMPDEST POP SWAP2 SWAP1 POP JUMP JUMPDEST PUSH1 0x0 DUP2 SWAP1 POP DUP2 PUSH1 0x0 MSTORE PUSH1 0x20 PUSH1 0x0 KECCAK256 SWAP1 POP SWAP2 SWAP1 POP JUMP JUMPDEST PUSH1 0x0 PUSH1 0x20 PUSH1 0x1F DUP4 ADD DIV SWAP1 POP SWAP2 SWAP1 POP JUMP JUMPDEST PUSH1 0x0 DUP3 DUP3 SHL SWAP1 POP SWAP3 SWAP2 POP POP JUMP JUMPDEST PUSH1 0x0 PUSH1 0x8 DUP4 MUL PUSH2 0x1237 PUSH32 0xFFFFFFFFFFFFFFFFFFFFFFFFFFFFFFFFFFFFFFFFFFFFFFFFFFFFFFFFFFFFFFFF DUP3 PUSH2 0x11FA JUMP JUMPDEST PUSH2 0x1241 DUP7 DUP4 PUSH2 0x11FA JUMP JUMPDEST SWAP6 POP DUP1 NOT DUP5 AND SWAP4 POP DUP1 DUP7 AND DUP5 OR SWAP3 POP POP POP SWAP4 SWAP3 POP POP POP JUMP JUMPDEST PUSH1 0x0 DUP2 SWAP1 POP SWAP2 SWAP1 POP JUMP JUMPDEST PUSH1 0x0 PUSH2 0x127E PUSH2 0x1279 PUSH2 0x1274 DUP5 PUSH2 0xE23 JUMP JUMPDEST PUSH2 0x1259 JUMP JUMPDEST PUSH2 0xE23 JUMP JUMPDEST SWAP1 POP SWAP2 SWAP1 POP JUMP JUMPDEST PUSH1 0x0 DUP2 SWAP1 POP SWAP2 SWAP1 POP JUMP JUMPDEST PUSH2 0x1298 DUP4 PUSH2 0x1263 JUMP JUMPDEST PUSH2 0x12AC PUSH2 0x12A4 DUP3 PUSH2 0x1285 JUMP JUMPDEST DUP5 DUP5 SLOAD PUSH2 0x1207 JUMP JUMPDEST DUP3 SSTORE POP POP POP POP JUMP JUMPDEST PUSH1 0x0 SWAP1 JUMP JUMPDEST PUSH2 0x12C1 PUSH2 0x12B4 JUMP JUMPDEST PUSH2 0x12CC DUP2 DUP5 DUP5 PUSH2 0x128F JUMP JUMPDEST POP POP POP JUMP JUMPDEST JUMPDEST DUP2 DUP2 LT ISZERO PUSH2 0x12F0 JUMPI PUSH2 0x12E5 PUSH1 0x0 DUP3 PUSH2 0x12B9 JUMP JUMPDEST PUSH1 0x1 DUP2 ADD SWAP1 POP PUSH2 0x12D2 JUMP JUMPDEST POP POP JUMP JUMPDEST PUSH1 0x1F DUP3 GT ISZERO PUSH2 0x1335 JUMPI PUSH2 0x1306 DUP2 PUSH2 0x11D5 JUMP JUMPDEST PUSH2 0x130F DUP5 PUSH2 0x11EA JUMP JUMPDEST DUP2 ADD PUSH1 0x20 DUP6 LT ISZERO PUSH2 0x131E JUMPI DUP2 SWAP1 POP JUMPDEST PUSH2 0x1332 PUSH2 0x132A DUP6 PUSH2 0x11EA JUMP JUMPDEST DUP4 ADD DUP3 PUSH2 0x12D1 JUMP JUMPDEST POP POP JUMPDEST POP POP POP JUMP JUMPDEST PUSH1 0x0 DUP3 DUP3 SHR SWAP1 POP SWAP3 SWAP2 POP POP JUMP JUMPDEST PUSH1 0x0 PUSH2 0x1358 PUSH1 0x0 NOT DUP5 PUSH1 0x8 MUL PUSH2 0x133A JUMP JUMPDEST NOT DUP1 DUP4 AND SWAP2 POP POP SWAP3 SWAP2 POP POP JUMP JUMPDEST PUSH1 0x0 PUSH2 0x1371 DUP4 DUP4 PUSH2 0x1347 JUMP JUMPDEST SWAP2 POP DUP3 PUSH1 0x2 MUL DUP3 OR SWAP1 POP SWAP3 SWAP2 POP POP JUMP JUMPDEST PUSH2 0x138B DUP4 DUP4 PUSH2 0x113B JUMP JUMPDEST PUSH8 0xFFFFFFFFFFFFFFFF DUP2 GT ISZERO PUSH2 0x13A4 JUMPI PUSH2 0x13A3 PUSH2 0x1146 JUMP JUMPDEST JUMPDEST PUSH2 0x13AE DUP3 SLOAD PUSH2 0x11A4 JUMP JUMPDEST PUSH2 0x13B9 DUP3 DUP3 DUP6 PUSH2 0x12F4 JUMP JUMPDEST PUSH1 0x0 PUSH1 0x1F DUP4 GT PUSH1 0x1 DUP2 EQ PUSH2 0x13E8 JUMPI PUSH1 0x0 DUP5 ISZERO PUSH2 0x13D6 JUMPI DUP3 DUP8 ADD CALLDATALOAD SWAP1 POP JUMPDEST PUSH2 0x13E0 DUP6 DUP3 PUSH2 0x1365 JUMP JUMPDEST DUP7 SSTORE POP PUSH2 0x1448 JUMP JUMPDEST PUSH1 0x1F NOT DUP5 AND PUSH2 0x13F6 DUP7 PUSH2 0x11D5 JUMP JUMPDEST PUSH1 0x0 JUMPDEST DUP3 DUP2 LT ISZERO PUSH2 0x141E JUMPI DUP5 DUP10 ADD CALLDATALOAD DUP3 SSTORE PUSH1 0x1 DUP3 ADD SWAP2 POP PUSH1 0x20 DUP6 ADD SWAP5 POP PUSH1 0x20 DUP2 ADD SWAP1 POP PUSH2 0x13F9 JUMP JUMPDEST DUP7 DUP4 LT ISZERO PUSH2 0x143B JUMPI DUP5 DUP10 ADD CALLDATALOAD PUSH2 0x1437 PUSH1 0x1F DUP10 AND DUP3 PUSH2 0x1347 JUMP JUMPDEST DUP4 SSTORE POP JUMPDEST PUSH1 0x1 PUSH1 0x2 DUP9 MUL ADD DUP9 SSTORE POP POP POP JUMPDEST POP POP POP POP POP POP POP JUMP JUMPDEST PUSH32 0x546869732061646472657373206973206E6F7420612073656372455448207369 PUSH1 0x0 DUP3 ADD MSTORE PUSH32 0x676E65722E000000000000000000000000000000000000000000000000000000 PUSH1 0x20 DUP3 ADD MSTORE POP JUMP JUMPDEST PUSH1 0x0 PUSH2 0x14AD PUSH1 0x25 DUP4 PUSH2 0xF3C JUMP JUMPDEST SWAP2 POP PUSH2 0x14B8 DUP3 PUSH2 0x1451 JUMP JUMPDEST PUSH1 0x40 DUP3 ADD SWAP1 POP SWAP2 SWAP1 POP JUMP JUMPDEST PUSH1 0x0 PUSH1 0x20 DUP3 ADD SWAP1 POP DUP2 DUP2 SUB PUSH1 0x0 DUP4 ADD MSTORE PUSH2 0x14DC DUP2 PUSH2 0x14A0 JUMP JUMPDEST SWAP1 POP SWAP2 SWAP1 POP JUMP JUMPDEST PUSH32 0x4E487B7100000000000000000000000000000000000000000000000000000000 PUSH1 0x0 MSTORE PUSH1 0x11 PUSH1 0x4 MSTORE PUSH1 0x24 PUSH1 0x0 REVERT JUMPDEST PUSH1 0x0 PUSH2 0x151D DUP3 PUSH2 0xE23 JUMP JUMPDEST SWAP2 POP PUSH2 0x1528 DUP4 PUSH2 0xE23 JUMP JUMPDEST SWAP3 POP DUP3 DUP3 ADD SWAP1 POP DUP1 DUP3 GT ISZERO PUSH2 0x1540 JUMPI PUSH2 0x153F PUSH2 0x14E3 JUMP JUMPDEST JUMPDEST SWAP3 SWAP2 POP POP JUMP JUMPDEST PUSH32 0x5468652074696D6520746F207375626D69742061206672616374696F6E616C20 PUSH1 0x0 DUP3 ADD MSTORE PUSH32 0x64656372797074696F6E20686173207061737365642E00000000000000000000 PUSH1 0x20 DUP3 ADD MSTORE POP JUMP JUMPDEST PUSH1 0x0 PUSH2 0x15A2 PUSH1 0x36 DUP4 PUSH2 0xF3C JUMP JUMPDEST SWAP2 POP PUSH2 0x15AD DUP3 PUSH2 0x1546 JUMP JUMPDEST PUSH1 0x40 DUP3 ADD SWAP1 POP SWAP2 SWAP1 POP JUMP JUMPDEST PUSH1 0x0 PUSH1 0x20 DUP3 ADD SWAP1 POP DUP2 DUP2 SUB PUSH1 0x0 DUP4 ADD MSTORE PUSH2 0x15D1 DUP2 PUSH2 0x1595 JUMP JUMPDEST SWAP1 POP SWAP2 SWAP1 POP JUMP JUMPDEST PUSH32 0x4E487B7100000000000000000000000000000000000000000000000000000000 PUSH1 0x0 MSTORE PUSH1 0x32 PUSH1 0x4 MSTORE PUSH1 0x24 PUSH1 0x0 REVERT JUMPDEST PUSH32 0x54686973206164647265737320616C6572656164792070726F76696465642074 PUSH1 0x0 DUP3 ADD MSTORE PUSH32 0x68656972206672616374696F6E616C2064656372797074696F6E2E0000000000 PUSH1 0x20 DUP3 ADD MSTORE POP JUMP JUMPDEST PUSH1 0x0 PUSH2 0x1663 PUSH1 0x3B DUP4 PUSH2 0xF3C JUMP JUMPDEST SWAP2 POP PUSH2 0x166E DUP3 PUSH2 0x1607 JUMP JUMPDEST PUSH1 0x40 DUP3 ADD SWAP1 POP SWAP2 SWAP1 POP JUMP JUMPDEST PUSH1 0x0 PUSH1 0x20 DUP3 ADD SWAP1 POP DUP2 DUP2 SUB PUSH1 0x0 DUP4 ADD MSTORE PUSH2 0x1692 DUP2 PUSH2 0x1656 JUMP JUMPDEST SWAP1 POP SWAP2 SWAP1 POP JUMP JUMPDEST PUSH1 0x0 PUSH2 0x16A4 DUP3 PUSH2 0xE23 JUMP JUMPDEST SWAP2 POP PUSH32 0xFFFFFFFFFFFFFFFFFFFFFFFFFFFFFFFFFFFFFFFFFFFFFFFFFFFFFFFFFFFFFFFF DUP3 SUB PUSH2 0x16D6 JUMPI PUSH2 0x16D5 PUSH2 0x14E3 JUMP JUMPDEST JUMPDEST PUSH1 0x1 DUP3 ADD SWAP1 POP SWAP2 SWAP1 POP JUMP JUMPDEST PUSH32 0x4E487B7100000000000000000000000000000000000000000000000000000000 PUSH1 0x0 MSTORE PUSH1 0x12 PUSH1 0x4 MSTORE PUSH1 0x24 PUSH1 0x0 REVERT JUMPDEST PUSH1 0x0 PUSH2 0x171B DUP3 PUSH2 0xCBA JUMP JUMPDEST SWAP2 POP PUSH2 0x1726 DUP4 PUSH2 0xCBA JUMP JUMPDEST SWAP3 POP DUP3 PUSH2 0x1736 JUMPI PUSH2 0x1735 PUSH2 0x16E1 JUMP JUMPDEST JUMPDEST DUP3 DUP3 DIV SWAP1 POP SWAP3 SWAP2 POP POP JUMP JUMPDEST PUSH1 0x0 PUSH1 0x40 DUP3 ADD SWAP1 POP PUSH2 0x1756 PUSH1 0x0 DUP4 ADD DUP6 PUSH2 0xDF9 JUMP JUMPDEST PUSH2 0x1763 PUSH1 0x20 DUP4 ADD DUP5 PUSH2 0xF07 JUMP JUMPDEST SWAP4 SWAP3 POP POP POP JUMP JUMPDEST PUSH32 0x546869732061646472657373206973206E6F7420616C6C6F77656420746F2064 PUSH1 0x0 DUP3 ADD MSTORE PUSH32 0x656372797074207468697320636970686572746578742E000000000000000000 PUSH1 0x20 DUP3 ADD MSTORE POP JUMP JUMPDEST PUSH1 0x0 PUSH2 0x17C6 PUSH1 0x37 DUP4 PUSH2 0xF3C JUMP JUMPDEST SWAP2 POP PUSH2 0x17D1 DUP3 PUSH2 0x176A JUMP JUMPDEST PUSH1 0x40 DUP3 ADD SWAP1 POP SWAP2 SWAP1 POP JUMP JUMPDEST PUSH1 0x0 PUSH1 0x20 DUP3 ADD SWAP1 POP DUP2 DUP2 SUB PUSH1 0x0 DUP4 ADD MSTORE PUSH2 0x17F5 DUP2 PUSH2 0x17B9 JUMP JUMPDEST SWAP1 POP SWAP2 SWAP1 POP JUMP JUMPDEST PUSH1 0x0 PUSH1 0x40 DUP3 ADD SWAP1 POP PUSH2 0x1811 PUSH1 0x0 DUP4 ADD DUP6 PUSH2 0xDF9 JUMP JUMPDEST PUSH2 0x181E PUSH1 0x20 DUP4 ADD DUP5 PUSH2 0xF22 JUMP JUMPDEST SWAP4 SWAP3 POP POP POP JUMP JUMPDEST PUSH32 0x54686973206369706865727465787420697320616C7265616479207265676973 PUSH1 0x0 DUP3 ADD MSTORE PUSH32 0x74657265642E20547279207573696E6720616E6F746865722073616C742E0000 PUSH1 0x20 DUP3 ADD MSTORE POP JUMP JUMPDEST PUSH1 0x0 PUSH2 0x1881 PUSH1 0x3E DUP4 PUSH2 0xF3C JUMP JUMPDEST SWAP2 POP PUSH2 0x188C DUP3 PUSH2 0x1825 JUMP JUMPDEST PUSH1 0x40 DUP3 ADD SWAP1 POP SWAP2 SWAP1 POP JUMP JUMPDEST PUSH1 0x0 PUSH1 0x20 DUP3 ADD SWAP1 POP DUP2 DUP2 SUB PUSH1 0x0 DUP4 ADD MSTORE PUSH2 0x18B0 DUP2 PUSH2 0x1874 JUMP JUMPDEST SWAP1 POP SWAP2 SWAP1 POP JUMP INVALID LOG2 PUSH5 0x6970667358 0x22 SLT KECCAK256 REVERT 0x21 CALLER RETURN PUSH27 0x1C6C51A5381023E2B5EBC3E5DC078EAB03B2AFE258789797715B37 PUSH5 0x736F6C6343 STOP ADDMOD GT STOP CALLER "},"methodIdentifiers":{"allCiphers(bytes32)":"6ed1627f","blocksDelay()":"8a689784","decrypt(bytes32,bool)":"dfb832ba","getPubKey()":"4ad02ef1","isSigner(address)":"7df73e27","joinNetwork(bytes32)":"c599a942","numSigners()":"12679fed","register(bytes32)":"e1fa8e84","shareGenerationFractions(bytes32,uint256)":"4df5e0e6","submitDecryption(bytes32,string)":"27efe457","submitFractionalDecryption(bytes32,bytes32)":"91dfeae5","submitShare(bytes32,bytes32)":"8063fae0","threshold()":"42cde4e8"}}}}}