{
  "_format": "hh-sol-artifact-1",
  "contractName": "SecrETH",
  "sourceName": "contracts/SecrETH.sol",
  "abi": [
    {
      "anonymous": false,
      "inputs": [
        {
          "indexed": false,
          "internalType": "bytes32",
          "name": "cipher",
          "type": "bytes32"
        },
        {
          "indexed": false,
          "internalType": "bool",
          "name": "shouldStoreDecryption",
          "type": "bool"
        }
      ],
      "name": "DecryptionCalled",
      "type": "event"
    },
    {
      "anonymous": false,
      "inputs": [
        {
          "indexed": false,
          "internalType": "bytes32",
          "name": "cipher",
          "type": "bytes32"
        }
      ],
      "name": "DecryptionReady",
      "type": "event"
    },
    {
      "anonymous": false,
      "inputs": [
        {
          "indexed": false,
          "internalType": "bytes32",
          "name": "cipher",
          "type": "bytes32"
        },
        {
          "indexed": false,
          "internalType": "uint256",
          "name": "storageFee",
          "type": "uint256"
        }
      ],
      "name": "DecryptionReadyIncentivized",
      "type": "event"
    },
    {
      "anonymous": false,
      "inputs": [
        {
          "indexed": false,
          "internalType": "bytes32",
          "name": "newSignerPubKey",
          "type": "bytes32"
        }
      ],
      "name": "JoinNetworkRequest",
      "type": "event"
    },
    {
      "inputs": [
        {
          "internalType": "bytes32",
          "name": "",
          "type": "bytes32"
        }
      ],
      "name": "allCiphers",
      "outputs": [
        {
          "internalType": "address",
          "name": "cipherOwner",
          "type": "address"
        },
        {
          "internalType": "uint256",
          "name": "decryptionInitBlock",
          "type": "uint256"
        },
        {
          "internalType": "bool",
          "name": "storeDecryption",
          "type": "bool"
        },
        {
          "internalType": "string",
          "name": "decryptedCipher",
          "type": "string"
        },
        {
          "internalType": "uint256",
          "name": "decryptionStorageFee",
          "type": "uint256"
        }
      ],
      "stateMutability": "view",
      "type": "function"
    },
    {
      "inputs": [],
      "name": "blocksDelay",
      "outputs": [
        {
          "internalType": "uint32",
          "name": "",
          "type": "uint32"
        }
      ],
      "stateMutability": "view",
      "type": "function"
    },
    {
      "inputs": [
        {
          "internalType": "bytes32",
          "name": "cipher",
          "type": "bytes32"
        },
        {
          "internalType": "bool",
          "name": "shouldStoreDecryption",
          "type": "bool"
        }
      ],
      "name": "decrypt",
      "outputs": [],
      "stateMutability": "payable",
      "type": "function"
    },
    {
      "inputs": [],
      "name": "getPubKey",
      "outputs": [
        {
          "internalType": "bytes32",
          "name": "",
          "type": "bytes32"
        }
      ],
      "stateMutability": "view",
      "type": "function"
    },
    {
      "inputs": [
        {
          "internalType": "address",
          "name": "",
          "type": "address"
        }
      ],
      "name": "isSigner",
      "outputs": [
        {
          "internalType": "bool",
          "name": "",
          "type": "bool"
        }
      ],
      "stateMutability": "view",
      "type": "function"
    },
    {
      "inputs": [
        {
          "internalType": "bytes32",
          "name": "newSignerPubKey",
          "type": "bytes32"
        }
      ],
      "name": "joinNetwork",
      "outputs": [],
      "stateMutability": "nonpayable",
      "type": "function"
    },
    {
      "inputs": [],
      "name": "numSigners",
      "outputs": [
        {
          "internalType": "uint32",
          "name": "",
          "type": "uint32"
        }
      ],
      "stateMutability": "view",
      "type": "function"
    },
    {
      "inputs": [
        {
          "internalType": "bytes32",
          "name": "cipher",
          "type": "bytes32"
        }
      ],
      "name": "register",
      "outputs": [],
      "stateMutability": "payable",
      "type": "function"
    },
    {
      "inputs": [
        {
          "internalType": "bytes32",
          "name": "",
          "type": "bytes32"
        },
        {
          "internalType": "uint256",
          "name": "",
          "type": "uint256"
        }
      ],
      "name": "shareGenerationFractions",
      "outputs": [
        {
          "internalType": "bytes32",
          "name": "",
          "type": "bytes32"
        }
      ],
      "stateMutability": "view",
      "type": "function"
    },
    {
      "inputs": [
        {
          "internalType": "bytes32",
          "name": "cipher",
          "type": "bytes32"
        },
        {
          "internalType": "string",
          "name": "decryptedCipher",
          "type": "string"
        }
      ],
      "name": "submitDecryption",
      "outputs": [],
      "stateMutability": "nonpayable",
      "type": "function"
    },
    {
      "inputs": [
        {
          "internalType": "bytes32",
          "name": "cipher",
          "type": "bytes32"
        },
        {
          "internalType": "bytes32",
          "name": "fractionalDecryption",
          "type": "bytes32"
        }
      ],
      "name": "submitFractionalDecryption",
      "outputs": [],
      "stateMutability": "nonpayable",
      "type": "function"
    },
    {
      "inputs": [
        {
          "internalType": "bytes32",
          "name": "newSignerPubKey",
          "type": "bytes32"
        },
        {
          "internalType": "bytes32",
          "name": "share",
          "type": "bytes32"
        }
      ],
      "name": "submitShare",
      "outputs": [],
      "stateMutability": "nonpayable",
      "type": "function"
    },
    {
      "inputs": [],
      "name": "threshold",
      "outputs": [
        {
          "internalType": "uint32",
          "name": "",
          "type": "uint32"
        }
      ],
      "stateMutability": "view",
      "type": "function"
    }
  ],
  "bytecode": "0x60806040526043600160006101000a81548163ffffffff021916908363ffffffff1602179055506064600160046101000a81548163ffffffff021916908363ffffffff1602179055506064600160086101000a81548163ffffffff021916908363ffffffff1602179055506127106001600c6101000a81548163ffffffff021916908363ffffffff16021790555034801561009957600080fd5b506118ed806100a96000396000f3fe6080604052600436106100c25760003560e01c80637df73e271161007f57806391dfeae51161005957806391dfeae514610280578063c599a942146102a9578063dfb832ba146102d2578063e1fa8e84146102ee576100c2565b80637df73e27146101ef5780638063fae01461022c5780638a68978414610255576100c2565b806312679fed146100c757806327efe457146100f257806342cde4e81461011b5780634ad02ef1146101465780634df5e0e6146101715780636ed1627f146101ae575b600080fd5b3480156100d357600080fd5b506100dc61030a565b6040516100e99190610cd9565b60405180910390f35b3480156100fe57600080fd5b5061011960048036038101906101149190610d99565b610320565b005b34801561012757600080fd5b50610130610441565b60405161013d9190610cd9565b60405180910390f35b34801561015257600080fd5b5061015b610457565b6040516101689190610e08565b60405180910390f35b34801561017d57600080fd5b5061019860048036038101906101939190610e59565b610460565b6040516101a59190610e08565b60405180910390f35b3480156101ba57600080fd5b506101d560048036038101906101d09190610e99565b610491565b6040516101e6959493929190610fc1565b60405180910390f35b3480156101fb57600080fd5b5061021660048036038101906102119190611047565b61057c565b6040516102239190611074565b60405180910390f35b34801561023857600080fd5b50610253600480360381019061024e919061108f565b61059c565b005b34801561026157600080fd5b5061026a6105da565b6040516102779190610cd9565b60405180910390f35b34801561028c57600080fd5b506102a760048036038101906102a2919061108f565b6105f0565b005b3480156102b557600080fd5b506102d060048036038101906102cb9190610e99565b610a11565b005b6102ec60048036038101906102e791906110fb565b610a4b565b005b61030860048036038101906103039190610e99565b610b98565b005b600160049054906101000a900463ffffffff1681565b600073ffffffffffffffffffffffffffffffffffffffff166004600085815260200190815260200160002060000160009054906101000a900473ffffffffffffffffffffffffffffffffffffffff1673ffffffffffffffffffffffffffffffffffffffff160361038f57600080fd5b81816004600086815260200190815260200160002060050191826103b4929190611381565b506004600084815260200190815260200160002060040160009054906101000a900460ff161561043c573373ffffffffffffffffffffffffffffffffffffffff166108fc60046000868152602001908152602001600020600601549081150290604051600060405180830381858888f1935050505015801561043a573d6000803e3d6000fd5b505b505050565b600160009054906101000a900463ffffffff1681565b60008054905090565b6003602052816000526040600020818154811061047c57600080fd5b90600052602060002001600091509150505481565b60046020528060005260406000206000915090508060000160009054906101000a900473ffffffffffffffffffffffffffffffffffffffff16908060010154908060040160009054906101000a900460ff16908060050180546104f3906111a4565b80601f016020809104026020016040519081016040528092919081815260200182805461051f906111a4565b801561056c5780601f106105415761010080835404028352916020019161056c565b820191906000526020600020905b81548152906001019060200180831161054f57829003601f168201915b5050505050908060060154905085565b60026020528060005260406000206000915054906101000a900460ff1681565b600360008381526020019081526020016000208190806001815401808255809150506001900390600052602060002001600090919091909150555050565b600160089054906101000a900463ffffffff1681565b600260003373ffffffffffffffffffffffffffffffffffffffff1673ffffffffffffffffffffffffffffffffffffffff16815260200190815260200160002060009054906101000a900460ff1661067c576040517f08c379a0000000000000000000000000000000000000000000000000000000008152600401610673906114c3565b60405180910390fd5b600160089054906101000a900463ffffffff1663ffffffff1660046000848152602001908152602001600020600101546106b69190611512565b4311156106f8576040517f08c379a00000000000000000000000000000000000000000000000000000000081526004016106ef906115b8565b60405180910390fd5b60005b60046000848152602001908152602001600020600201805490508110156107ef573373ffffffffffffffffffffffffffffffffffffffff1660046000858152602001908152602001600020600201828154811061075b5761075a6115d8565b5b9060005260206000200160009054906101000a900473ffffffffffffffffffffffffffffffffffffffff1673ffffffffffffffffffffffffffffffffffffffff16036107dc576040517f08c379a00000000000000000000000000000000000000000000000000000000081526004016107d390611679565b60405180910390fd5b80806107e790611699565b9150506106fb565b503373ffffffffffffffffffffffffffffffffffffffff166108fc600160049054906101000a900463ffffffff166001600c9054906101000a900463ffffffff1661083a9190611710565b63ffffffff169081150290604051600060405180830381858888f1935050505015801561086b573d6000803e3d6000fd5b506004600083815260200190815260200160002060030181908060018154018082558091505060019003906000526020600020016000909190919091505560046000838152602001908152602001600020600201339080600181540180825580915050600190039060005260206000200160009091909190916101000a81548173ffffffffffffffffffffffffffffffffffffffff021916908373ffffffffffffffffffffffffffffffffffffffff160217905550600160009054906101000a900463ffffffff1663ffffffff16600460008481526020019081526020016000206003018054905010610a0d576004600083815260200190815260200160002060040160009054906101000a900460ff166109bc577f3a98a0c4d082a0de73bf3517a925253ef2734009f3658faf1dea6fda3a077511826040516109af9190610e08565b60405180910390a1610a0c565b7f47809c742d6a78f90b32bea12241727704690a861a68ba6de574bd94e0300c59826004600085815260200190815260200160002060060154604051610a03929190611741565b60405180910390a15b5b5050565b7ff038f3ef493c9873db4722ea4d338910a38691891fc5c58be1ff60ea1c67091c81604051610a409190610e08565b60405180910390a150565b3373ffffffffffffffffffffffffffffffffffffffff166004600084815260200190815260200160002060000160009054906101000a900473ffffffffffffffffffffffffffffffffffffffff1673ffffffffffffffffffffffffffffffffffffffff1614610aef576040517f08c379a0000000000000000000000000000000000000000000000000000000008152600401610ae6906117dc565b60405180910390fd5b7f129771835890f568a463b5138a64c652da11fe24f9da1738c797b164070666278282604051610b209291906117fc565b60405180910390a14360046000848152602001908152602001600020600101819055508015610b945734600460008481526020019081526020016000206006018190555060016004600084815260200190815260200160002060040160006101000a81548160ff0219169083151502179055505b5050565b600073ffffffffffffffffffffffffffffffffffffffff166004600083815260200190815260200160002060000160009054906101000a900473ffffffffffffffffffffffffffffffffffffffff1673ffffffffffffffffffffffffffffffffffffffff1614610c3d576040517f08c379a0000000000000000000000000000000000000000000000000000000008152600401610c3490611897565b60405180910390fd5b6001600c9054906101000a900463ffffffff1663ffffffff16341015610c6257600080fd5b336004600083815260200190815260200160002060000160006101000a81548173ffffffffffffffffffffffffffffffffffffffff021916908373ffffffffffffffffffffffffffffffffffffffff16021790555050565b600063ffffffff82169050919050565b610cd381610cba565b82525050565b6000602082019050610cee6000830184610cca565b92915050565b600080fd5b600080fd5b6000819050919050565b610d1181610cfe565b8114610d1c57600080fd5b50565b600081359050610d2e81610d08565b92915050565b600080fd5b600080fd5b600080fd5b60008083601f840112610d5957610d58610d34565b5b8235905067ffffffffffffffff811115610d7657610d75610d39565b5b602083019150836001820283011115610d9257610d91610d3e565b5b9250929050565b600080600060408486031215610db257610db1610cf4565b5b6000610dc086828701610d1f565b935050602084013567ffffffffffffffff811115610de157610de0610cf9565b5b610ded86828701610d43565b92509250509250925092565b610e0281610cfe565b82525050565b6000602082019050610e1d6000830184610df9565b92915050565b6000819050919050565b610e3681610e23565b8114610e4157600080fd5b50565b600081359050610e5381610e2d565b92915050565b60008060408385031215610e7057610e6f610cf4565b5b6000610e7e85828601610d1f565b9250506020610e8f85828601610e44565b9150509250929050565b600060208284031215610eaf57610eae610cf4565b5b6000610ebd84828501610d1f565b91505092915050565b600073ffffffffffffffffffffffffffffffffffffffff82169050919050565b6000610ef182610ec6565b9050919050565b610f0181610ee6565b82525050565b610f1081610e23565b82525050565b60008115159050919050565b610f2b81610f16565b82525050565b600081519050919050565b600082825260208201905092915050565b60005b83811015610f6b578082015181840152602081019050610f50565b60008484015250505050565b6000601f19601f8301169050919050565b6000610f9382610f31565b610f9d8185610f3c565b9350610fad818560208601610f4d565b610fb681610f77565b840191505092915050565b600060a082019050610fd66000830188610ef8565b610fe36020830187610f07565b610ff06040830186610f22565b81810360608301526110028185610f88565b90506110116080830184610f07565b9695505050505050565b61102481610ee6565b811461102f57600080fd5b50565b6000813590506110418161101b565b92915050565b60006020828403121561105d5761105c610cf4565b5b600061106b84828501611032565b91505092915050565b60006020820190506110896000830184610f22565b92915050565b600080604083850312156110a6576110a5610cf4565b5b60006110b485828601610d1f565b92505060206110c585828601610d1f565b9150509250929050565b6110d881610f16565b81146110e357600080fd5b50565b6000813590506110f5816110cf565b92915050565b6000806040838503121561111257611111610cf4565b5b600061112085828601610d1f565b9250506020611131858286016110e6565b9150509250929050565b600082905092915050565b7f4e487b7100000000000000000000000000000000000000000000000000000000600052604160045260246000fd5b7f4e487b7100000000000000000000000000000000000000000000000000000000600052602260045260246000fd5b600060028204905060018216806111bc57607f821691505b6020821081036111cf576111ce611175565b5b50919050565b60008190508160005260206000209050919050565b60006020601f8301049050919050565b600082821b905092915050565b6000600883026112377fffffffffffffffffffffffffffffffffffffffffffffffffffffffffffffffff826111fa565b61124186836111fa565b95508019841693508086168417925050509392505050565b6000819050919050565b600061127e61127961127484610e23565b611259565b610e23565b9050919050565b6000819050919050565b61129883611263565b6112ac6112a482611285565b848454611207565b825550505050565b600090565b6112c16112b4565b6112cc81848461128f565b505050565b5b818110156112f0576112e56000826112b9565b6001810190506112d2565b5050565b601f82111561133557611306816111d5565b61130f846111ea565b8101602085101561131e578190505b61133261132a856111ea565b8301826112d1565b50505b505050565b600082821c905092915050565b60006113586000198460080261133a565b1980831691505092915050565b60006113718383611347565b9150826002028217905092915050565b61138b838361113b565b67ffffffffffffffff8111156113a4576113a3611146565b5b6113ae82546111a4565b6113b98282856112f4565b6000601f8311600181146113e857600084156113d6578287013590505b6113e08582611365565b865550611448565b601f1984166113f6866111d5565b60005b8281101561141e578489013582556001820191506020850194506020810190506113f9565b8683101561143b5784890135611437601f891682611347565b8355505b6001600288020188555050505b50505050505050565b7f546869732061646472657373206973206e6f742061207365637245544820736960008201527f676e65722e000000000000000000000000000000000000000000000000000000602082015250565b60006114ad602583610f3c565b91506114b882611451565b604082019050919050565b600060208201905081810360008301526114dc816114a0565b9050919050565b7f4e487b7100000000000000000000000000000000000000000000000000000000600052601160045260246000fd5b600061151d82610e23565b915061152883610e23565b92508282019050808211156115405761153f6114e3565b5b92915050565b7f5468652074696d6520746f207375626d69742061206672616374696f6e616c2060008201527f64656372797074696f6e20686173207061737365642e00000000000000000000602082015250565b60006115a2603683610f3c565b91506115ad82611546565b604082019050919050565b600060208201905081810360008301526115d181611595565b9050919050565b7f4e487b7100000000000000000000000000000000000000000000000000000000600052603260045260246000fd5b7f54686973206164647265737320616c6572656164792070726f7669646564207460008201527f68656972206672616374696f6e616c2064656372797074696f6e2e0000000000602082015250565b6000611663603b83610f3c565b915061166e82611607565b604082019050919050565b6000602082019050818103600083015261169281611656565b9050919050565b60006116a482610e23565b91507fffffffffffffffffffffffffffffffffffffffffffffffffffffffffffffffff82036116d6576116d56114e3565b5b600182019050919050565b7f4e487b7100000000000000000000000000000000000000000000000000000000600052601260045260246000fd5b600061171b82610cba565b915061172683610cba565b925082611736576117356116e1565b5b828204905092915050565b60006040820190506117566000830185610df9565b6117636020830184610f07565b9392505050565b7f546869732061646472657373206973206e6f7420616c6c6f77656420746f206460008201527f656372797074207468697320636970686572746578742e000000000000000000602082015250565b60006117c6603783610f3c565b91506117d18261176a565b604082019050919050565b600060208201905081810360008301526117f5816117b9565b9050919050565b60006040820190506118116000830185610df9565b61181e6020830184610f22565b9392505050565b7f54686973206369706865727465787420697320616c726561647920726567697360008201527f74657265642e20547279207573696e6720616e6f746865722073616c742e0000602082015250565b6000611881603e83610f3c565b915061188c82611825565b604082019050919050565b600060208201905081810360008301526118b081611874565b905091905056fea2646970667358221220fd2133f37a1c6c51a5381023e2b5ebc3e5dc078eab03b2afe258789797715b3764736f6c63430008110033",
  "linkReferences": {},
  "deployedLinkReferences": {}
}