{
  "_format": "hh-sol-artifact-1",
  "contractName": "SecrETHGoerli",
  "sourceName": "contracts/SecrETHGoerli.sol",
  "abi": [
    {
      "inputs": [
        {
          "internalType": "address[]",
          "name": "initialSigners",
          "type": "address[]"
        },
        {
          "internalType": "bytes32",
          "name": "_pubKey",
          "type": "bytes32"
        },
        {
          "internalType": "uint32",
          "name": "_threshold",
          "type": "uint32"
        },
        {
          "internalType": "uint32",
          "name": "_blocksDelay",
          "type": "uint32"
        },
        {
          "internalType": "uint32",
          "name": "_generalFee",
          "type": "uint32"
        }
      ],
      "stateMutability": "nonpayable",
      "type": "constructor"
    },
    {
      "anonymous": false,
      "inputs": [
        {
          "indexed": false,
          "internalType": "string",
          "name": "cipher",
          "type": "string"
        },
        {
          "indexed": false,
          "internalType": "bool",
          "name": "shouldStoreDecryption",
          "type": "bool"
        }
      ],
      "name": "DecryptionCalled",
      "type": "event"
    },
    {
      "anonymous": false,
      "inputs": [
        {
          "indexed": false,
          "internalType": "string",
          "name": "cipher",
          "type": "string"
        }
      ],
      "name": "DecryptionReady",
      "type": "event"
    },
    {
      "anonymous": false,
      "inputs": [
        {
          "indexed": false,
          "internalType": "string",
          "name": "cipher",
          "type": "string"
        },
        {
          "indexed": false,
          "internalType": "uint256",
          "name": "storageFee",
          "type": "uint256"
        }
      ],
      "name": "DecryptionReadyIncentivized",
      "type": "event"
    },
    {
      "anonymous": false,
      "inputs": [
        {
          "indexed": false,
          "internalType": "bytes32",
          "name": "newSignerPubKey",
          "type": "bytes32"
        }
      ],
      "name": "JoinNetworkRequest",
      "type": "event"
    },
    {
      "inputs": [
        {
          "internalType": "string",
          "name": "",
          "type": "string"
        }
      ],
      "name": "allCiphers",
      "outputs": [
        {
          "internalType": "address",
          "name": "cipherOwner",
          "type": "address"
        },
        {
          "internalType": "uint256",
          "name": "decryptionInitBlock",
          "type": "uint256"
        },
        {
          "internalType": "bool",
          "name": "storeDecryption",
          "type": "bool"
        },
        {
          "internalType": "string",
          "name": "decryptedCipher",
          "type": "string"
        },
        {
          "internalType": "uint256",
          "name": "decryptionStorageFee",
          "type": "uint256"
        }
      ],
      "stateMutability": "view",
      "type": "function"
    },
    {
      "inputs": [
        {
          "internalType": "string",
          "name": "cipher",
          "type": "string"
        },
        {
          "internalType": "bool",
          "name": "shouldStoreDecryption",
          "type": "bool"
        }
      ],
      "name": "decrypt",
      "outputs": [],
      "stateMutability": "payable",
      "type": "function"
    },
    {
      "inputs": [],
      "name": "getBlocksDelay",
      "outputs": [
        {
          "internalType": "uint32",
          "name": "",
          "type": "uint32"
        }
      ],
      "stateMutability": "view",
      "type": "function"
    },
    {
      "inputs": [],
      "name": "getGeneralFee",
      "outputs": [
        {
          "internalType": "uint32",
          "name": "",
          "type": "uint32"
        }
      ],
      "stateMutability": "view",
      "type": "function"
    },
    {
      "inputs": [],
      "name": "getNumSigners",
      "outputs": [
        {
          "internalType": "uint32",
          "name": "",
          "type": "uint32"
        }
      ],
      "stateMutability": "view",
      "type": "function"
    },
    {
      "inputs": [],
      "name": "getPubKey",
      "outputs": [
        {
          "internalType": "bytes32",
          "name": "",
          "type": "bytes32"
        }
      ],
      "stateMutability": "view",
      "type": "function"
    },
    {
      "inputs": [],
      "name": "getThreshold",
      "outputs": [
        {
          "internalType": "uint32",
          "name": "",
          "type": "uint32"
        }
      ],
      "stateMutability": "view",
      "type": "function"
    },
    {
      "inputs": [
        {
          "internalType": "address",
          "name": "",
          "type": "address"
        }
      ],
      "name": "isSigner",
      "outputs": [
        {
          "internalType": "bool",
          "name": "",
          "type": "bool"
        }
      ],
      "stateMutability": "view",
      "type": "function"
    },
    {
      "inputs": [
        {
          "internalType": "bytes32",
          "name": "newSignerPubKey",
          "type": "bytes32"
        }
      ],
      "name": "joinNetwork",
      "outputs": [],
      "stateMutability": "nonpayable",
      "type": "function"
    },
    {
      "inputs": [
        {
          "internalType": "string",
          "name": "cipher",
          "type": "string"
        }
      ],
      "name": "register",
      "outputs": [],
      "stateMutability": "payable",
      "type": "function"
    },
    {
      "inputs": [
        {
          "internalType": "bytes32",
          "name": "",
          "type": "bytes32"
        },
        {
          "internalType": "uint256",
          "name": "",
          "type": "uint256"
        }
      ],
      "name": "shareGenerationPartialSignatures",
      "outputs": [
        {
          "internalType": "bytes32",
          "name": "",
          "type": "bytes32"
        }
      ],
      "stateMutability": "view",
      "type": "function"
    },
    {
      "inputs": [
        {
          "internalType": "string",
          "name": "cipher",
          "type": "string"
        },
        {
          "internalType": "string",
          "name": "decryptedCipher",
          "type": "string"
        }
      ],
      "name": "submitDecryption",
      "outputs": [],
      "stateMutability": "nonpayable",
      "type": "function"
    },
    {
      "inputs": [
        {
          "internalType": "string",
          "name": "cipher",
          "type": "string"
        },
        {
          "internalType": "string",
          "name": "partialDecryptionX",
          "type": "string"
        },
        {
          "internalType": "string",
          "name": "partialDecryptionC1_x",
          "type": "string"
        },
        {
          "internalType": "string",
          "name": "partialDecryptionC1_y",
          "type": "string"
        }
      ],
      "name": "submitPartialDecryption",
      "outputs": [],
      "stateMutability": "nonpayable",
      "type": "function"
    },
    {
      "inputs": [
        {
          "internalType": "bytes32",
          "name": "newSignerPubKey",
          "type": "bytes32"
        },
        {
          "internalType": "bytes32",
          "name": "share",
          "type": "bytes32"
        }
      ],
      "name": "submitShare",
      "outputs": [],
      "stateMutability": "nonpayable",
      "type": "function"
    }
  ],
  "bytecode": "0x60806040523480156200001157600080fd5b5060405162002eab38038062002eab8339818101604052810190620000379190620003d1565b60005b8551811015620000cf5760016002600088848151811062000060576200005f62000478565b5b602002602001015173ffffffffffffffffffffffffffffffffffffffff1673ffffffffffffffffffffffffffffffffffffffff16815260200190815260200160002060006101000a81548160ff0219169083151502179055508080620000c690620004e0565b9150506200003a565b508360008190555082600160006101000a81548163ffffffff021916908363ffffffff1602179055508451600160046101000a81548163ffffffff021916908363ffffffff16021790555081600160086101000a81548163ffffffff021916908363ffffffff160217905550806001600c6101000a81548163ffffffff021916908363ffffffff16021790555050505050506200052d565b6000604051905090565b600080fd5b600080fd5b600080fd5b6000601f19601f8301169050919050565b7f4e487b7100000000000000000000000000000000000000000000000000000000600052604160045260246000fd5b620001cb8262000180565b810181811067ffffffffffffffff82111715620001ed57620001ec62000191565b5b80604052505050565b60006200020262000167565b9050620002108282620001c0565b919050565b600067ffffffffffffffff82111562000233576200023262000191565b5b602082029050602081019050919050565b600080fd5b600073ffffffffffffffffffffffffffffffffffffffff82169050919050565b6000620002768262000249565b9050919050565b620002888162000269565b81146200029457600080fd5b50565b600081519050620002a8816200027d565b92915050565b6000620002c5620002bf8462000215565b620001f6565b90508083825260208201905060208402830185811115620002eb57620002ea62000244565b5b835b8181101562000318578062000303888262000297565b845260208401935050602081019050620002ed565b5050509392505050565b600082601f8301126200033a57620003396200017b565b5b81516200034c848260208601620002ae565b91505092915050565b6000819050919050565b6200036a8162000355565b81146200037657600080fd5b50565b6000815190506200038a816200035f565b92915050565b600063ffffffff82169050919050565b620003ab8162000390565b8114620003b757600080fd5b50565b600081519050620003cb81620003a0565b92915050565b600080600080600060a08688031215620003f057620003ef62000171565b5b600086015167ffffffffffffffff81111562000411576200041062000176565b5b6200041f8882890162000322565b9550506020620004328882890162000379565b94505060406200044588828901620003ba565b93505060606200045888828901620003ba565b92505060806200046b88828901620003ba565b9150509295509295909350565b7f4e487b7100000000000000000000000000000000000000000000000000000000600052603260045260246000fd5b7f4e487b7100000000000000000000000000000000000000000000000000000000600052601160045260246000fd5b6000819050919050565b6000620004ed82620004d6565b91507fffffffffffffffffffffffffffffffffffffffffffffffffffffffffffffffff8203620005225762000521620004a7565b5b600182019050919050565b61296e806200053d6000396000f3fe6080604052600436106100dd5760003560e01c80638063fae01161007f578063c599a94211610059578063c599a942146102b5578063e75235b8146102de578063f011a75614610309578063f2c298be14610334576100dd565b80638063fae014610220578063a0479ae914610249578063b9a49ddc14610274576100dd565b80634e9d22a6116100bb5780634e9d22a61461015f578063563abf651461019c5780636746ba2f146101c75780637df73e27146101e3576100dd565b806338ec96ff146100e257806343591fe11461010b5780634ad02ef114610134575b600080fd5b3480156100ee57600080fd5b506101096004803603810190610104919061130e565b610350565b005b34801561011757600080fd5b50610132600480360381019061012d919061138f565b6104a6565b005b34801561014057600080fd5b50610149610bda565b6040516101569190611491565b60405180910390f35b34801561016b57600080fd5b506101866004803603810190610181919061150e565b610be3565b6040516101939190611491565b60405180910390f35b3480156101a857600080fd5b506101b1610c14565b6040516101be919061156d565b60405180910390f35b6101e160048036038101906101dc91906115c0565b610c2e565b005b3480156101ef57600080fd5b5061020a6004803603810190610205919061167e565b610e66565b60405161021791906116ba565b60405180910390f35b34801561022c57600080fd5b50610247600480360381019061024291906116d5565b610e86565b005b34801561025557600080fd5b5061025e610ec4565b60405161026b919061156d565b60405180910390f35b34801561028057600080fd5b5061029b60048036038101906102969190611856565b610ede565b6040516102ac95949392919061193c565b60405180910390f35b3480156102c157600080fd5b506102dc60048036038101906102d79190611996565b610fdf565b005b3480156102ea57600080fd5b506102f36110cd565b604051610300919061156d565b60405180910390f35b34801561031557600080fd5b5061031e6110e7565b60405161032b919061156d565b60405180910390f35b61034e600480360381019061034991906119c3565b611101565b005b600073ffffffffffffffffffffffffffffffffffffffff166004858560405161037a929190611a40565b908152602001604051809103902060000160009054906101000a900473ffffffffffffffffffffffffffffffffffffffff1673ffffffffffffffffffffffffffffffffffffffff16036103cc57600080fd5b8181600486866040516103e0929190611a40565b908152602001604051809103902060050191826103fe929190611c70565b5060048484604051610411929190611a40565b908152602001604051809103902060040160009054906101000a900460ff16156104a0573373ffffffffffffffffffffffffffffffffffffffff166108fc60048686604051610461929190611a40565b9081526020016040518091039020600601549081150290604051600060405180830381858888f1935050505015801561049e573d6000803e3d6000fd5b505b50505050565b600260003373ffffffffffffffffffffffffffffffffffffffff1673ffffffffffffffffffffffffffffffffffffffff16815260200190815260200160002060009054906101000a900460ff16610532576040517f08c379a000000000000000000000000000000000000000000000000000000000815260040161052990611db2565b60405180910390fd5b600160089054906101000a900463ffffffff1663ffffffff166004898960405161055d929190611a40565b9081526020016040518091039020600101546105799190611e01565b4311156105bb576040517f08c379a00000000000000000000000000000000000000000000000000000000081526004016105b290611ea7565b60405180910390fd5b60005b600489896040516105d0929190611a40565b9081526020016040518091039020600201805490508110156106cc573373ffffffffffffffffffffffffffffffffffffffff1660048a8a604051610615929190611a40565b9081526020016040518091039020600201828154811061063857610637611ec7565b5b9060005260206000200160009054906101000a900473ffffffffffffffffffffffffffffffffffffffff1673ffffffffffffffffffffffffffffffffffffffff16036106b9576040517f08c379a00000000000000000000000000000000000000000000000000000000081526004016106b090611f68565b60405180910390fd5b80806106c490611f88565b9150506105be565b503373ffffffffffffffffffffffffffffffffffffffff166108fc600160049054906101000a900463ffffffff166001600c9054906101000a900463ffffffff166107179190611fff565b63ffffffff169081150290604051600060405180830381858888f19350505050158015610748573d6000803e3d6000fd5b50610751611274565b604051806060016040528088888080601f016020809104026020016040519081016040528093929190818152602001838380828437600081840152601f19601f82011690508083019250505050505050815260200186868080601f016020809104026020016040519081016040528093929190818152602001838380828437600081840152601f19601f82011690508083019250505050505050815260200184848080601f016020809104026020016040519081016040528093929190818152602001838380828437600081840152601f19601f8201169050808301925050505050505081525090506004898960405161084c929190611a40565b9081526020016040518091039020600301819080600181540180825580915050600190039060005260206000209060030201600090919091909150600082015181600001908161089c9190612030565b5060208201518160010190816108b29190612030565b5060408201518160020190816108c89190612030565b505050600489896040516108dd929190611a40565b9081526020016040518091039020600201339080600181540180825580915050600190039060005260206000200160009091909190916101000a81548173ffffffffffffffffffffffffffffffffffffffff021916908373ffffffffffffffffffffffffffffffffffffffff160217905550600160009054906101000a900463ffffffff1663ffffffff1660048a8a60405161097a929190611a40565b90815260200160405180910390206003018054905010610bcf57600489896040516109a6929190611a40565b908152602001604051809103902060040160009054906101000a900460ff16610abb577f1af2555444bc4bd98c689b04b66248288d623c372bff560cefbb4d11a5eb1add89896040516109fa92919061212f565b60405180910390a173d4e3cec407cd36d9e3767cd189cccafbf549202c73ffffffffffffffffffffffffffffffffffffffff1663ba3d69d7738248bf189c9ef0523288eab176febf8f1ec0584230604051602001610a57906122f5565b6040516020818303038152906040526040518463ffffffff1660e01b8152600401610a84939291906123a1565b600060405180830381600087803b158015610a9e57600080fd5b505af1158015610ab2573d6000803e3d6000fd5b50505050610bce565b7f21295728f6e659fa24e9e51a4f99417afe52ea7d4a1eb6453f8cd65d95598073898960048c8c604051610af0929190611a40565b908152602001604051809103902060060154604051610b11939291906123df565b60405180910390a173d4e3cec407cd36d9e3767cd189cccafbf549202c73ffffffffffffffffffffffffffffffffffffffff1663ba3d69d7738248bf189c9ef0523288eab176febf8f1ec0584230604051602001610b6e906124f5565b6040516020818303038152906040526040518463ffffffff1660e01b8152600401610b9b939291906123a1565b600060405180830381600087803b158015610bb557600080fd5b505af1158015610bc9573d6000803e3d6000fd5b505050505b5b505050505050505050565b60008054905090565b60036020528160005260406000208181548110610bff57600080fd5b90600052602060002001600091509150505481565b6000600160049054906101000a900463ffffffff16905090565b3373ffffffffffffffffffffffffffffffffffffffff1660048484604051610c57929190611a40565b908152602001604051809103902060000160009054906101000a900473ffffffffffffffffffffffffffffffffffffffff1673ffffffffffffffffffffffffffffffffffffffff1614610cdf576040517f08c379a0000000000000000000000000000000000000000000000000000000008152600401610cd6906125be565b60405180910390fd5b7fd97417e19933d4d9b7bcd7ba54825368b20b2b0b6efd0efa8d618fe3a6fd0711838383604051610d12939291906125de565b60405180910390a173d4e3cec407cd36d9e3767cd189cccafbf549202c73ffffffffffffffffffffffffffffffffffffffff1663ba3d69d7738248bf189c9ef0523288eab176febf8f1ec0584230604051602001610d6f906126a8565b6040516020818303038152906040526040518463ffffffff1660e01b8152600401610d9c939291906123a1565b600060405180830381600087803b158015610db657600080fd5b505af1158015610dca573d6000803e3d6000fd5b505050504360048484604051610de1929190611a40565b9081526020016040518091039020600101819055508015610e61573460048484604051610e0f929190611a40565b908152602001604051809103902060060181905550600160048484604051610e38929190611a40565b908152602001604051809103902060040160006101000a81548160ff0219169083151502179055505b505050565b60026020528060005260406000206000915054906101000a900460ff1681565b600360008381526020019081526020016000208190806001815401808255809150506001900390600052602060002001600090919091909150555050565b6000600160089054906101000a900463ffffffff16905090565b6004818051602081018201805184825260208301602085012081835280955050505050506000915090508060000160009054906101000a900473ffffffffffffffffffffffffffffffffffffffff16908060010154908060040160009054906101000a900460ff1690806005018054610f5690611a93565b80601f0160208091040260200160405190810160405280929190818152602001828054610f8290611a93565b8015610fcf5780601f10610fa457610100808354040283529160200191610fcf565b820191906000526020600020905b815481529060010190602001808311610fb257829003601f168201915b5050505050908060060154905085565b7ff038f3ef493c9873db4722ea4d338910a38691891fc5c58be1ff60ea1c67091c8160405161100e9190611491565b60405180910390a173d4e3cec407cd36d9e3767cd189cccafbf549202c73ffffffffffffffffffffffffffffffffffffffff1663ba3d69d7738248bf189c9ef0523288eab176febf8f1ec058423060405160200161106b906127bd565b6040516020818303038152906040526040518463ffffffff1660e01b8152600401611098939291906123a1565b600060405180830381600087803b1580156110b257600080fd5b505af11580156110c6573d6000803e3d6000fd5b5050505050565b6000600160009054906101000a900463ffffffff16905090565b60006001600c9054906101000a900463ffffffff16905090565b600073ffffffffffffffffffffffffffffffffffffffff166004838360405161112b929190611a40565b908152602001604051809103902060000160009054906101000a900473ffffffffffffffffffffffffffffffffffffffff1673ffffffffffffffffffffffffffffffffffffffff16146111b3576040517f08c379a00000000000000000000000000000000000000000000000000000000081526004016111aa90612886565b60405180910390fd5b6001600c9054906101000a900463ffffffff1663ffffffff1634101561120e576040517f08c379a000000000000000000000000000000000000000000000000000000000815260040161120590612918565b60405180910390fd5b3360048383604051611221929190611a40565b908152602001604051809103902060000160006101000a81548173ffffffffffffffffffffffffffffffffffffffff021916908373ffffffffffffffffffffffffffffffffffffffff1602179055505050565b60405180606001604052806060815260200160608152602001606081525090565b6000604051905090565b600080fd5b600080fd5b600080fd5b600080fd5b600080fd5b60008083601f8401126112ce576112cd6112a9565b5b8235905067ffffffffffffffff8111156112eb576112ea6112ae565b5b602083019150836001820283011115611307576113066112b3565b5b9250929050565b600080600080604085870312156113285761132761129f565b5b600085013567ffffffffffffffff811115611346576113456112a4565b5b611352878288016112b8565b9450945050602085013567ffffffffffffffff811115611375576113746112a4565b5b611381878288016112b8565b925092505092959194509250565b6000806000806000806000806080898b0312156113af576113ae61129f565b5b600089013567ffffffffffffffff8111156113cd576113cc6112a4565b5b6113d98b828c016112b8565b9850985050602089013567ffffffffffffffff8111156113fc576113fb6112a4565b5b6114088b828c016112b8565b9650965050604089013567ffffffffffffffff81111561142b5761142a6112a4565b5b6114378b828c016112b8565b9450945050606089013567ffffffffffffffff81111561145a576114596112a4565b5b6114668b828c016112b8565b92509250509295985092959890939650565b6000819050919050565b61148b81611478565b82525050565b60006020820190506114a66000830184611482565b92915050565b6114b581611478565b81146114c057600080fd5b50565b6000813590506114d2816114ac565b92915050565b6000819050919050565b6114eb816114d8565b81146114f657600080fd5b50565b600081359050611508816114e2565b92915050565b600080604083850312156115255761152461129f565b5b6000611533858286016114c3565b9250506020611544858286016114f9565b9150509250929050565b600063ffffffff82169050919050565b6115678161154e565b82525050565b6000602082019050611582600083018461155e565b92915050565b60008115159050919050565b61159d81611588565b81146115a857600080fd5b50565b6000813590506115ba81611594565b92915050565b6000806000604084860312156115d9576115d861129f565b5b600084013567ffffffffffffffff8111156115f7576115f66112a4565b5b611603868287016112b8565b93509350506020611616868287016115ab565b9150509250925092565b600073ffffffffffffffffffffffffffffffffffffffff82169050919050565b600061164b82611620565b9050919050565b61165b81611640565b811461166657600080fd5b50565b60008135905061167881611652565b92915050565b6000602082840312156116945761169361129f565b5b60006116a284828501611669565b91505092915050565b6116b481611588565b82525050565b60006020820190506116cf60008301846116ab565b92915050565b600080604083850312156116ec576116eb61129f565b5b60006116fa858286016114c3565b925050602061170b858286016114c3565b9150509250929050565b600080fd5b6000601f19601f8301169050919050565b7f4e487b7100000000000000000000000000000000000000000000000000000000600052604160045260246000fd5b6117638261171a565b810181811067ffffffffffffffff821117156117825761178161172b565b5b80604052505050565b6000611795611295565b90506117a1828261175a565b919050565b600067ffffffffffffffff8211156117c1576117c061172b565b5b6117ca8261171a565b9050602081019050919050565b82818337600083830152505050565b60006117f96117f4846117a6565b61178b565b90508281526020810184848401111561181557611814611715565b5b6118208482856117d7565b509392505050565b600082601f83011261183d5761183c6112a9565b5b813561184d8482602086016117e6565b91505092915050565b60006020828403121561186c5761186b61129f565b5b600082013567ffffffffffffffff81111561188a576118896112a4565b5b61189684828501611828565b91505092915050565b6118a881611640565b82525050565b6118b7816114d8565b82525050565b600081519050919050565b600082825260208201905092915050565b60005b838110156118f75780820151818401526020810190506118dc565b60008484015250505050565b600061190e826118bd565b61191881856118c8565b93506119288185602086016118d9565b6119318161171a565b840191505092915050565b600060a082019050611951600083018861189f565b61195e60208301876118ae565b61196b60408301866116ab565b818103606083015261197d8185611903565b905061198c60808301846118ae565b9695505050505050565b6000602082840312156119ac576119ab61129f565b5b60006119ba848285016114c3565b91505092915050565b600080602083850312156119da576119d961129f565b5b600083013567ffffffffffffffff8111156119f8576119f76112a4565b5b611a04858286016112b8565b92509250509250929050565b600081905092915050565b6000611a278385611a10565b9350611a348385846117d7565b82840190509392505050565b6000611a4d828486611a1b565b91508190509392505050565b600082905092915050565b7f4e487b7100000000000000000000000000000000000000000000000000000000600052602260045260246000fd5b60006002820490506001821680611aab57607f821691505b602082108103611abe57611abd611a64565b5b50919050565b60008190508160005260206000209050919050565b60006020601f8301049050919050565b600082821b905092915050565b600060088302611b267fffffffffffffffffffffffffffffffffffffffffffffffffffffffffffffffff82611ae9565b611b308683611ae9565b95508019841693508086168417925050509392505050565b6000819050919050565b6000611b6d611b68611b63846114d8565b611b48565b6114d8565b9050919050565b6000819050919050565b611b8783611b52565b611b9b611b9382611b74565b848454611af6565b825550505050565b600090565b611bb0611ba3565b611bbb818484611b7e565b505050565b5b81811015611bdf57611bd4600082611ba8565b600181019050611bc1565b5050565b601f821115611c2457611bf581611ac4565b611bfe84611ad9565b81016020851015611c0d578190505b611c21611c1985611ad9565b830182611bc0565b50505b505050565b600082821c905092915050565b6000611c4760001984600802611c29565b1980831691505092915050565b6000611c608383611c36565b9150826002028217905092915050565b611c7a8383611a59565b67ffffffffffffffff811115611c9357611c9261172b565b5b611c9d8254611a93565b611ca8828285611be3565b6000601f831160018114611cd75760008415611cc5578287013590505b611ccf8582611c54565b865550611d37565b601f198416611ce586611ac4565b60005b82811015611d0d57848901358255600182019150602085019450602081019050611ce8565b86831015611d2a5784890135611d26601f891682611c36565b8355505b6001600288020188555050505b50505050505050565b7f546869732061646472657373206973206e6f742061207365637245544820736960008201527f676e65722e000000000000000000000000000000000000000000000000000000602082015250565b6000611d9c6025836118c8565b9150611da782611d40565b604082019050919050565b60006020820190508181036000830152611dcb81611d8f565b9050919050565b7f4e487b7100000000000000000000000000000000000000000000000000000000600052601160045260246000fd5b6000611e0c826114d8565b9150611e17836114d8565b9250828201905080821115611e2f57611e2e611dd2565b5b92915050565b7f5468652074696d6520746f207375626d69742061207061727469616c2064656360008201527f72797074696f6e20686173207061737365642e00000000000000000000000000602082015250565b6000611e916033836118c8565b9150611e9c82611e35565b604082019050919050565b60006020820190508181036000830152611ec081611e84565b9050919050565b7f4e487b7100000000000000000000000000000000000000000000000000000000600052603260045260246000fd5b7f54686973206164647265737320616c6572656164792070726f7669646564207460008201527f68656972207061727469616c2064656372797074696f6e2e0000000000000000602082015250565b6000611f526038836118c8565b9150611f5d82611ef6565b604082019050919050565b60006020820190508181036000830152611f8181611f45565b9050919050565b6000611f93826114d8565b91507fffffffffffffffffffffffffffffffffffffffffffffffffffffffffffffffff8203611fc557611fc4611dd2565b5b600182019050919050565b7f4e487b7100000000000000000000000000000000000000000000000000000000600052601260045260246000fd5b600061200a8261154e565b91506120158361154e565b92508261202557612024611fd0565b5b828204905092915050565b612039826118bd565b67ffffffffffffffff8111156120525761205161172b565b5b61205c8254611a93565b612067828285611be3565b600060209050601f83116001811461209a5760008415612088578287015190505b6120928582611c54565b8655506120fa565b601f1984166120a886611ac4565b60005b828110156120d0578489015182556001820191506020850194506020810190506120ab565b868310156120ed57848901516120e9601f891682611c36565b8355505b6001600288020188555050505b505050505050565b600061210e83856118c8565b935061211b8385846117d7565b6121248361171a565b840190509392505050565b6000602082019050818103600083015261214a818486612102565b90509392505050565b7f3000000000000000000000000000000000000000000000000000000000000000600082015250565b6000612189600183611a10565b915061219482612153565b600182019050919050565b7f2b00000000000000000000000000000000000000000000000000000000000000600082015250565b60006121d5600183611a10565b91506121e08261219f565b600182019050919050565b7f3100000000000000000000000000000000000000000000000000000000000000600082015250565b6000612221600183611a10565b915061222c826121eb565b600182019050919050565b7f44656372797074696f6e20726561647921000000000000000000000000000000600082015250565b600061226d601183611a10565b915061227882612237565b601182019050919050565b7f4e65772063697068657220697320726561647920746f2062652064656372797060008201527f7465642e00000000000000000000000000000000000000000000000000000000602082015250565b60006122df602483611a10565b91506122ea82612283565b602482019050919050565b60006123008261217c565b915061230b826121c8565b915061231682612214565b9150612321826121c8565b915061232c82612260565b9150612337826121c8565b9150612342826122d2565b9150819050919050565b600081519050919050565b600082825260208201905092915050565b60006123738261234c565b61237d8185612357565b935061238d8185602086016118d9565b6123968161171a565b840191505092915050565b60006060820190506123b6600083018661189f565b6123c3602083018561189f565b81810360408301526123d58184612368565b9050949350505050565b600060408201905081810360008301526123fa818587612102565b905061240960208301846118ae565b949350505050565b7f496e63656e746976697a65642064656372797074696f6e207265616479210000600082015250565b6000612447601e83611a10565b915061245282612411565b601e82019050919050565b7f43697068657220726561647920746f206265206465637279707465642e20507560008201527f7420696e206f6e20636861696e20616e6420726563656976652061207265776160208201527f72642e0000000000000000000000000000000000000000000000000000000000604082015250565b60006124df604383611a10565b91506124ea8261245d565b604382019050919050565b60006125008261217c565b915061250b826121c8565b915061251682612214565b9150612521826121c8565b915061252c8261243a565b9150612537826121c8565b9150612542826124d2565b9150819050919050565b7f546869732061646472657373206973206e6f7420616c6c6f77656420746f206460008201527f656372797074207468697320636970686572746578742e000000000000000000602082015250565b60006125a86037836118c8565b91506125b38261254c565b604082019050919050565b600060208201905081810360008301526125d78161259b565b9050919050565b600060408201905081810360008301526125f9818587612102565b905061260860208301846116ab565b949350505050565b7f44656372797074696f6e20526571756573740000000000000000000000000000600082015250565b6000612646601283611a10565b915061265182612610565b601282019050919050565b7f4e65772064656372797074696f6e207265717565737465642100000000000000600082015250565b6000612692601983611a10565b915061269d8261265c565b601982019050919050565b60006126b38261217c565b91506126be826121c8565b91506126c982612214565b91506126d4826121c8565b91506126df82612639565b91506126ea826121c8565b91506126f582612685565b9150819050919050565b7f5265717565737420746f206a6f696e206e6574776f726b210000000000000000600082015250565b6000612735601883611a10565b9150612740826126ff565b601882019050919050565b7f41206e6577207369676e657220697320747279696e6720746f206a6f696e207460008201527f6865206e6574776f726b2e000000000000000000000000000000000000000000602082015250565b60006127a7602b83611a10565b91506127b28261274b565b602b82019050919050565b60006127c88261217c565b91506127d3826121c8565b91506127de82612214565b91506127e9826121c8565b91506127f482612728565b91506127ff826121c8565b915061280a8261279a565b9150819050919050565b7f54686973206369706865727465787420697320616c726561647920726567697360008201527f74657265642e20547279207573696e6720616e6f746865722073616c742e0000602082015250565b6000612870603e836118c8565b915061287b82612814565b604082019050919050565b6000602082019050818103600083015261289f81612863565b9050919050565b7f6d73672e76616c756520776173206e6f7420656e6f75676820746f20636f766560008201527f7220746865206665652e00000000000000000000000000000000000000000000602082015250565b6000612902602a836118c8565b915061290d826128a6565b604082019050919050565b60006020820190508181036000830152612931816128f5565b905091905056fea264697066735822122087d375acf960c3a9650b004b30f9da9204392a2c0e92cc9e803526f2867ed6dc64736f6c63430008110033",
  "linkReferences": {},
  "deployedLinkReferences": {}
}