{
  "_format": "hh-sol-artifact-1",
  "contractName": "SecrETHCaller",
  "sourceName": "contracts/SecrETHCaller.sol",
  "abi": [
    {
      "inputs": [
        {
          "internalType": "string",
          "name": "_ourCipher",
          "type": "string"
        },
        {
          "internalType": "uint32",
          "name": "_locktime",
          "type": "uint32"
        },
        {
          "internalType": "address",
          "name": "secrETHAddress",
          "type": "address"
        }
      ],
      "stateMutability": "nonpayable",
      "type": "constructor"
    },
    {
      "inputs": [],
      "name": "callDecryption",
      "outputs": [],
      "stateMutability": "nonpayable",
      "type": "function"
    },
    {
      "inputs": [],
      "name": "locktime",
      "outputs": [
        {
          "internalType": "uint32",
          "name": "",
          "type": "uint32"
        }
      ],
      "stateMutability": "view",
      "type": "function"
    },
    {
      "inputs": [],
      "name": "ourCipher",
      "outputs": [
        {
          "internalType": "string",
          "name": "",
          "type": "string"
        }
      ],
      "stateMutability": "view",
      "type": "function"
    }
  ],
  "bytecode": "0x60806040523480156200001157600080fd5b5060405162000af638038062000af68339818101604052810190620000379190620002ed565b8260009081620000489190620005b3565b5081600160006101000a81548163ffffffff021916908363ffffffff16021790555080600160046101000a81548173ffffffffffffffffffffffffffffffffffffffff021916908373ffffffffffffffffffffffffffffffffffffffff1602179055505050506200069a565b6000604051905090565b600080fd5b600080fd5b600080fd5b600080fd5b6000601f19601f8301169050919050565b7f4e487b7100000000000000000000000000000000000000000000000000000000600052604160045260246000fd5b6200011d82620000d2565b810181811067ffffffffffffffff821117156200013f576200013e620000e3565b5b80604052505050565b600062000154620000b4565b905062000162828262000112565b919050565b600067ffffffffffffffff821115620001855762000184620000e3565b5b6200019082620000d2565b9050602081019050919050565b60005b83811015620001bd578082015181840152602081019050620001a0565b60008484015250505050565b6000620001e0620001da8462000167565b62000148565b905082815260208101848484011115620001ff57620001fe620000cd565b5b6200020c8482856200019d565b509392505050565b600082601f8301126200022c576200022b620000c8565b5b81516200023e848260208601620001c9565b91505092915050565b600063ffffffff82169050919050565b620002628162000247565b81146200026e57600080fd5b50565b600081519050620002828162000257565b92915050565b600073ffffffffffffffffffffffffffffffffffffffff82169050919050565b6000620002b58262000288565b9050919050565b620002c781620002a8565b8114620002d357600080fd5b50565b600081519050620002e781620002bc565b92915050565b600080600060608486031215620003095762000308620000be565b5b600084015167ffffffffffffffff8111156200032a5762000329620000c3565b5b620003388682870162000214565b93505060206200034b8682870162000271565b92505060406200035e86828701620002d6565b9150509250925092565b600081519050919050565b7f4e487b7100000000000000000000000000000000000000000000000000000000600052602260045260246000fd5b60006002820490506001821680620003bb57607f821691505b602082108103620003d157620003d062000373565b5b50919050565b60008190508160005260206000209050919050565b60006020601f8301049050919050565b600082821b905092915050565b6000600883026200043b7fffffffffffffffffffffffffffffffffffffffffffffffffffffffffffffffff82620003fc565b620004478683620003fc565b95508019841693508086168417925050509392505050565b6000819050919050565b6000819050919050565b6000620004946200048e62000488846200045f565b62000469565b6200045f565b9050919050565b6000819050919050565b620004b08362000473565b620004c8620004bf826200049b565b84845462000409565b825550505050565b600090565b620004df620004d0565b620004ec818484620004a5565b505050565b5b81811015620005145762000508600082620004d5565b600181019050620004f2565b5050565b601f82111562000563576200052d81620003d7565b6200053884620003ec565b8101602085101562000548578190505b620005606200055785620003ec565b830182620004f1565b50505b505050565b600082821c905092915050565b6000620005886000198460080262000568565b1980831691505092915050565b6000620005a3838362000575565b9150826002028217905092915050565b620005be8262000368565b67ffffffffffffffff811115620005da57620005d9620000e3565b5b620005e68254620003a2565b620005f382828562000518565b600060209050601f8311600181146200062b576000841562000616578287015190505b62000622858262000595565b86555062000692565b601f1984166200063b86620003d7565b60005b8281101562000665578489015182556001820191506020850194506020810190506200063e565b8683101562000685578489015162000681601f89168262000575565b8355505b6001600288020188555050505b505050505050565b61044c80620006aa6000396000f3fe608060405234801561001057600080fd5b50600436106100415760003560e01c806361c533b4146100465780637da0e07214610064578063eb2ef73f14610082575b600080fd5b61004e61008c565b60405161005b9190610205565b60405180910390f35b61006c6100a2565b60405161007991906102b0565b60405180910390f35b61008a610130565b005b600160009054906101000a900463ffffffff1681565b600080546100af90610301565b80601f01602080910402602001604051908101604052809291908181526020018280546100db90610301565b80156101285780601f106100fd57610100808354040283529160200191610128565b820191906000526020600020905b81548152906001019060200180831161010b57829003601f168201915b505050505081565b600160009054906101000a900463ffffffff1663ffffffff1643106101e457600160049054906101000a900473ffffffffffffffffffffffffffffffffffffffff1673ffffffffffffffffffffffffffffffffffffffff16636746ba2f614e20600060016040518463ffffffff1660e01b81526004016101b19291906103e6565b6000604051808303818588803b1580156101ca57600080fd5b505af11580156101de573d6000803e3d6000fd5b50505050505b565b600063ffffffff82169050919050565b6101ff816101e6565b82525050565b600060208201905061021a60008301846101f6565b92915050565b600081519050919050565b600082825260208201905092915050565b60005b8381101561025a57808201518184015260208101905061023f565b60008484015250505050565b6000601f19601f8301169050919050565b600061028282610220565b61028c818561022b565b935061029c81856020860161023c565b6102a581610266565b840191505092915050565b600060208201905081810360008301526102ca8184610277565b905092915050565b7f4e487b7100000000000000000000000000000000000000000000000000000000600052602260045260246000fd5b6000600282049050600182168061031957607f821691505b60208210810361032c5761032b6102d2565b5b50919050565b60008190508160005260206000209050919050565b6000815461035481610301565b61035e818661022b565b94506001821660008114610379576001811461038f576103c2565b60ff1983168652811515602002860193506103c2565b61039885610332565b60005b838110156103ba5781548189015260018201915060208101905061039b565b808801955050505b50505092915050565b60008115159050919050565b6103e0816103cb565b82525050565b600060408201905081810360008301526104008185610347565b905061040f60208301846103d7565b939250505056fea2646970667358221220ae9957febcbe794988f5b31f7b064760dbfdea83dc3932ab185fa7d6bf46799f64736f6c63430008110033",
  "linkReferences": {},
  "deployedLinkReferences": {}
}